{
  "contractName": "LotLottery",
  "abi": [
    {
      "inputs": [],
      "stateMutability": "nonpayable",
      "type": "constructor"
    },
    {
      "inputs": [
        {
          "internalType": "uint256",
          "name": "",
          "type": "uint256"
        }
      ],
      "name": "lotteryHistory",
      "outputs": [
        {
          "internalType": "address payable",
          "name": "",
          "type": "address"
        }
      ],
      "stateMutability": "view",
      "type": "function",
      "constant": true
    },
    {
      "inputs": [],
      "name": "lotteryId",
      "outputs": [
        {
          "internalType": "uint256",
          "name": "",
          "type": "uint256"
        }
      ],
      "stateMutability": "view",
      "type": "function",
      "constant": true
    },
    {
      "inputs": [],
      "name": "owner",
      "outputs": [
        {
          "internalType": "address",
          "name": "",
          "type": "address"
        }
      ],
      "stateMutability": "view",
      "type": "function",
      "constant": true
    },
    {
      "inputs": [
        {
          "internalType": "uint256",
          "name": "",
          "type": "uint256"
        }
      ],
      "name": "players",
      "outputs": [
        {
          "internalType": "address payable",
          "name": "",
          "type": "address"
        }
      ],
      "stateMutability": "view",
      "type": "function",
      "constant": true
    },
    {
      "inputs": [
        {
          "internalType": "uint256",
          "name": "lottery",
          "type": "uint256"
        }
      ],
      "name": "getWinnerByLottery",
      "outputs": [
        {
          "internalType": "address payable",
          "name": "",
          "type": "address"
        }
      ],
      "stateMutability": "view",
      "type": "function",
      "constant": true
    },
    {
      "inputs": [],
      "name": "getBalance",
      "outputs": [
        {
          "internalType": "uint256",
          "name": "",
          "type": "uint256"
        }
      ],
      "stateMutability": "view",
      "type": "function",
      "constant": true
    },
    {
      "inputs": [],
      "name": "getPlayers",
      "outputs": [
        {
          "internalType": "address payable[]",
          "name": "",
          "type": "address[]"
        }
      ],
      "stateMutability": "view",
      "type": "function",
      "constant": true
    },
    {
      "inputs": [],
      "name": "enter",
      "outputs": [],
      "stateMutability": "payable",
      "type": "function",
      "payable": true
    },
    {
      "inputs": [],
      "name": "getRandomNumber",
      "outputs": [
        {
          "internalType": "uint256",
          "name": "",
          "type": "uint256"
        }
      ],
      "stateMutability": "view",
      "type": "function",
      "constant": true
    },
    {
      "inputs": [],
      "name": "pickWinner",
      "outputs": [],
      "stateMutability": "nonpayable",
      "type": "function"
    }
  ],
  "bytecode": "0x608060405234801561001057600080fd5b50336000806101000a81548173ffffffffffffffffffffffffffffffffffffffff021916908373ffffffffffffffffffffffffffffffffffffffff1602179055506001600281905550610b37806100686000396000f3fe6080604052600436106100915760003560e01c80638da5cb5b116100595780638da5cb5b1461017d578063dbdff2c1146101a8578063e580f47b146101d3578063e97dcb62146101fe578063f71d96cb1461020857610091565b806312065fe014610096578063281d098d146100c15780635d495aea146100fe5780636d6fe230146101155780638b5b9ccc14610152575b600080fd5b3480156100a257600080fd5b506100ab610245565b6040516100b89190610746565b60405180910390f35b3480156100cd57600080fd5b506100e860048036038101906100e39190610792565b61024d565b6040516100f59190610800565b60405180910390f35b34801561010a57600080fd5b5061011361028a565b005b34801561012157600080fd5b5061013c60048036038101906101379190610792565b610490565b6040516101499190610800565b60405180910390f35b34801561015e57600080fd5b506101676104c3565b60405161017491906108d9565b60405180910390f35b34801561018957600080fd5b50610192610551565b60405161019f919061091c565b60405180910390f35b3480156101b457600080fd5b506101bd610575565b6040516101ca9190610746565b60405180910390f35b3480156101df57600080fd5b506101e86105c9565b6040516101f59190610746565b60405180910390f35b6102066105cf565b005b34801561021457600080fd5b5061022f600480360381019061022a9190610792565b610647565b60405161023c9190610800565b60405180910390f35b600047905090565b60006003600083815260200190815260200160002060009054906101000a900473ffffffffffffffffffffffffffffffffffffffff169050919050565b60008054906101000a900473ffffffffffffffffffffffffffffffffffffffff1673ffffffffffffffffffffffffffffffffffffffff163373ffffffffffffffffffffffffffffffffffffffff16146102e257600080fd5b60006001805490506102f2610575565b6102fc9190610966565b90506001818154811061031257610311610997565b5b9060005260206000200160009054906101000a900473ffffffffffffffffffffffffffffffffffffffff1673ffffffffffffffffffffffffffffffffffffffff166108fc479081150290604051600060405180830381858888f19350505050158015610382573d6000803e3d6000fd5b506001818154811061039757610396610997565b5b9060005260206000200160009054906101000a900473ffffffffffffffffffffffffffffffffffffffff1660036000600254815260200190815260200160002060006101000a81548173ffffffffffffffffffffffffffffffffffffffff021916908373ffffffffffffffffffffffffffffffffffffffff16021790555060026000815480929190610428906109f5565b9190505550600067ffffffffffffffff81111561044857610447610a3d565b5b6040519080825280602002602001820160405280156104765781602001602082028036833780820191505090505b506001908051906020019061048c929190610686565b5050565b60036020528060005260406000206000915054906101000a900473ffffffffffffffffffffffffffffffffffffffff1681565b6060600180548060200260200160405190810160405280929190818152602001828054801561054757602002820191906000526020600020905b8160009054906101000a900473ffffffffffffffffffffffffffffffffffffffff1673ffffffffffffffffffffffffffffffffffffffff16815260200190600101908083116104fd575b5050505050905090565b60008054906101000a900473ffffffffffffffffffffffffffffffffffffffff1681565b60008060009054906101000a900473ffffffffffffffffffffffffffffffffffffffff16426040516020016105ab929190610ad5565b6040516020818303038152906040528051906020012060001c905090565b60025481565b662386f26fc1000034116105e257600080fd5b6001339080600181540180825580915050600190039060005260206000200160009091909190916101000a81548173ffffffffffffffffffffffffffffffffffffffff021916908373ffffffffffffffffffffffffffffffffffffffff160217905550565b6001818154811061065757600080fd5b906000526020600020016000915054906101000a900473ffffffffffffffffffffffffffffffffffffffff1681565b8280548282559060005260206000209081019282156106ff579160200282015b828111156106fe5782518260006101000a81548173ffffffffffffffffffffffffffffffffffffffff021916908373ffffffffffffffffffffffffffffffffffffffff160217905550916020019190600101906106a6565b5b50905061070c9190610710565b5090565b5b80821115610729576000816000905550600101610711565b5090565b6000819050919050565b6107408161072d565b82525050565b600060208201905061075b6000830184610737565b92915050565b600080fd5b61076f8161072d565b811461077a57600080fd5b50565b60008135905061078c81610766565b92915050565b6000602082840312156107a8576107a7610761565b5b60006107b68482850161077d565b91505092915050565b600073ffffffffffffffffffffffffffffffffffffffff82169050919050565b60006107ea826107bf565b9050919050565b6107fa816107df565b82525050565b600060208201905061081560008301846107f1565b92915050565b600081519050919050565b600082825260208201905092915050565b6000819050602082019050919050565b610850816107df565b82525050565b60006108628383610847565b60208301905092915050565b6000602082019050919050565b60006108868261081b565b6108908185610826565b935061089b83610837565b8060005b838110156108cc5781516108b38882610856565b97506108be8361086e565b92505060018101905061089f565b5085935050505092915050565b600060208201905081810360008301526108f3818461087b565b905092915050565b6000610906826107bf565b9050919050565b610916816108fb565b82525050565b6000602082019050610931600083018461090d565b92915050565b7f4e487b7100000000000000000000000000000000000000000000000000000000600052601260045260246000fd5b60006109718261072d565b915061097c8361072d565b92508261098c5761098b610937565b5b828206905092915050565b7f4e487b7100000000000000000000000000000000000000000000000000000000600052603260045260246000fd5b7f4e487b7100000000000000000000000000000000000000000000000000000000600052601160045260246000fd5b6000610a008261072d565b91507fffffffffffffffffffffffffffffffffffffffffffffffffffffffffffffffff8203610a3257610a316109c6565b5b600182019050919050565b7f4e487b7100000000000000000000000000000000000000000000000000000000600052604160045260246000fd5b60008160601b9050919050565b6000610a8482610a6c565b9050919050565b6000610a9682610a79565b9050919050565b610aae610aa9826108fb565b610a8b565b82525050565b6000819050919050565b610acf610aca8261072d565b610ab4565b82525050565b6000610ae18285610a9d565b601482019150610af18284610abe565b602082019150819050939250505056fea2646970667358221220dc14272fd4d65ac643bd3ad3952559b6c5bb718cd098756bff39507584316aef64736f6c634300080d0033",
  "immutableReferences": {},
  "source": "// SPDX-License-Identifier: MIT\n\npragma solidity ^0.8.13;\nimport \"./LotTokenSale.sol\";\ncontract LotLottery {\n    address public owner;\n    address payable[] public players;\n    uint public lotteryId;\n    mapping (uint => address payable) public lotteryHistory;\n\n    constructor() {\n        owner = msg.sender;\n        lotteryId = 1;\n    }\n\n    function getWinnerByLottery(uint lottery) public view returns (address payable) {\n        return lotteryHistory[lottery];\n    }\n\n    function getBalance() public view returns (uint) {\n        return address(this).balance;\n    }\n\n    function getPlayers() public view returns (address payable[] memory) {\n        return players;\n    }\n\n    function enter() public payable {\n        require(msg.value > .01 ether);\n\n        // address of player entering lottery\n        players.push(payable(msg.sender));\n    }\n\n    function getRandomNumber() public view returns (uint) {\n        return uint(keccak256(abi.encodePacked(owner, block.timestamp)));\n    }\n\n    function pickWinner() public onlyowner {\n        uint index = getRandomNumber() % players.length;\n        players[index].transfer(address(this).balance);\n\n        lotteryHistory[lotteryId] = players[index];\n        lotteryId++;\n        \n\n        // reset the state of the contract\n        players = new address payable[](0);\n    }\n\n    modifier onlyowner() {\n      require(msg.sender == owner);\n      _;\n    }\n}",
  "sourcePath": "/Users/sunyingjin/EE6883/ELENE6883_Final-Project/contracts/LotLottery.sol",
  "compiler": {
    "name": "solc",
    "version": "0.8.13+commit.abaa5c0e.Emscripten.clang"
  },
  "schemaVersion": "3.4.7",
  "updatedAt": "2022-05-12T18:49:57.291Z",
  "networkType": "ethereum",
  "devdoc": {
    "kind": "dev",
    "methods": {},
    "version": 1
  },
  "userdoc": {
    "kind": "user",
    "methods": {},
    "version": 1
  }
}