{
  "contractName": "Lottery",
  "abi": [
    {
      "inputs": [],
      "stateMutability": "nonpayable",
      "type": "constructor"
    },
    {
      "inputs": [
        {
          "internalType": "uint256",
          "name": "",
          "type": "uint256"
        }
      ],
      "name": "lotteryHistory",
      "outputs": [
        {
          "internalType": "address payable",
          "name": "",
          "type": "address"
        }
      ],
      "stateMutability": "view",
      "type": "function"
    },
    {
      "inputs": [],
      "name": "lotteryId",
      "outputs": [
        {
          "internalType": "uint256",
          "name": "",
          "type": "uint256"
        }
      ],
      "stateMutability": "view",
      "type": "function"
    },
    {
      "inputs": [],
      "name": "owner",
      "outputs": [
        {
          "internalType": "address",
          "name": "",
          "type": "address"
        }
      ],
      "stateMutability": "view",
      "type": "function"
    },
    {
      "inputs": [
        {
          "internalType": "uint256",
          "name": "",
          "type": "uint256"
        }
      ],
      "name": "players",
      "outputs": [
        {
          "internalType": "address payable",
          "name": "",
          "type": "address"
        }
      ],
      "stateMutability": "view",
      "type": "function"
    },
    {
      "inputs": [],
      "name": "randomResult",
      "outputs": [
        {
          "internalType": "uint256",
          "name": "",
          "type": "uint256"
        }
      ],
      "stateMutability": "view",
      "type": "function"
    },
    {
      "inputs": [
        {
          "internalType": "uint256",
          "name": "lottery",
          "type": "uint256"
        }
      ],
      "name": "getWinnerByLottery",
      "outputs": [
        {
          "internalType": "address payable",
          "name": "",
          "type": "address"
        }
      ],
      "stateMutability": "view",
      "type": "function"
    },
    {
      "inputs": [],
      "name": "getBalance",
      "outputs": [
        {
          "internalType": "uint256",
          "name": "",
          "type": "uint256"
        }
      ],
      "stateMutability": "view",
      "type": "function"
    },
    {
      "inputs": [],
      "name": "getPlayers",
      "outputs": [
        {
          "internalType": "address payable[]",
          "name": "",
          "type": "address[]"
        }
      ],
      "stateMutability": "view",
      "type": "function"
    },
    {
      "inputs": [],
      "name": "enter",
      "outputs": [],
      "stateMutability": "payable",
      "type": "function"
    },
    {
      "inputs": [],
      "name": "getRandomNumber",
      "outputs": [
        {
          "internalType": "uint256",
          "name": "",
          "type": "uint256"
        }
      ],
      "stateMutability": "nonpayable",
      "type": "function"
    },
    {
      "inputs": [],
      "name": "pickWinner",
      "outputs": [],
      "stateMutability": "payable",
      "type": "function"
    },
    {
      "inputs": [],
      "name": "payWinner",
      "outputs": [],
      "stateMutability": "payable",
      "type": "function"
    }
  ],
  "bytecode": "0x608060405234801561001057600080fd5b50336000806101000a81548173ffffffffffffffffffffffffffffffffffffffff021916908373ffffffffffffffffffffffffffffffffffffffff1602179055506001600281905550610b80806100686000396000f3fe6080604052600436106100a75760003560e01c80638da5cb5b116100645780638da5cb5b146101b1578063be71248a146101dc578063dbdff2c1146101e6578063e580f47b14610211578063e97dcb621461023c578063f71d96cb14610246576100a7565b806312065fe0146100ac578063281d098d146100d757806342619f66146101145780635d495aea1461013f5780636d6fe230146101495780638b5b9ccc14610186575b600080fd5b3480156100b857600080fd5b506100c1610283565b6040516100ce9190610700565b60405180910390f35b3480156100e357600080fd5b506100fe60048036038101906100f9919061074c565b61028b565b60405161010b91906107ba565b60405180910390f35b34801561012057600080fd5b506101296102c8565b6040516101369190610700565b60405180910390f35b6101476102ce565b005b34801561015557600080fd5b50610170600480360381019061016b919061074c565b6102ff565b60405161017d91906107ba565b60405180910390f35b34801561019257600080fd5b5061019b610332565b6040516101a89190610893565b60405180910390f35b3480156101bd57600080fd5b506101c66103c0565b6040516101d391906108d6565b60405180910390f35b6101e46103e4565b005b3480156101f257600080fd5b506101fb610526565b6040516102089190610700565b60405180910390f35b34801561021d57600080fd5b50610226610583565b6040516102339190610700565b60405180910390f35b610244610589565b005b34801561025257600080fd5b5061026d6004803603810190610268919061074c565b610601565b60405161027a91906107ba565b60405180910390f35b600047905090565b60006004600083815260200190815260200160002060009054906101000a900473ffffffffffffffffffffffffffffffffffffffff169050919050565b60035481565b6000600180549050116102e057600080fd5b60006001805490506102f0610526565b6102fa9190610920565b905050565b60046020528060005260406000206000915054906101000a900473ffffffffffffffffffffffffffffffffffffffff1681565b606060018054806020026020016040519081016040528092919081815260200182805480156103b657602002820191906000526020600020905b8160009054906101000a900473ffffffffffffffffffffffffffffffffffffffff1673ffffffffffffffffffffffffffffffffffffffff168152602001906001019080831161036c575b5050505050905090565b60008054906101000a900473ffffffffffffffffffffffffffffffffffffffff1681565b600060035411610429576040517f08c379a0000000000000000000000000000000000000000000000000000000008152600401610420906109d4565b60405180910390fd5b60006001808054905061043c9190610a23565b90506001818154811061045257610451610a57565b5b9060005260206000200160009054906101000a900473ffffffffffffffffffffffffffffffffffffffff1673ffffffffffffffffffffffffffffffffffffffff166108fc479081150290604051600060405180830381858888f193505050501580156104c2573d6000803e3d6000fd5b50600067ffffffffffffffff8111156104de576104dd610a86565b5b60405190808252806020026020018201604052801561050c5781602001602082028036833780820191505090505b5060019080519060200190610522929190610640565b5050565b60008060009054906101000a900473ffffffffffffffffffffffffffffffffffffffff164260405160200161055c929190610b1e565b6040516020818303038152906040528051906020012060001c600381905550600354905090565b60025481565b662386f26fc10000341161059c57600080fd5b6001339080600181540180825580915050600190039060005260206000200160009091909190916101000a81548173ffffffffffffffffffffffffffffffffffffffff021916908373ffffffffffffffffffffffffffffffffffffffff160217905550565b6001818154811061061157600080fd5b906000526020600020016000915054906101000a900473ffffffffffffffffffffffffffffffffffffffff1681565b8280548282559060005260206000209081019282156106b9579160200282015b828111156106b85782518260006101000a81548173ffffffffffffffffffffffffffffffffffffffff021916908373ffffffffffffffffffffffffffffffffffffffff16021790555091602001919060010190610660565b5b5090506106c691906106ca565b5090565b5b808211156106e35760008160009055506001016106cb565b5090565b6000819050919050565b6106fa816106e7565b82525050565b600060208201905061071560008301846106f1565b92915050565b600080fd5b610729816106e7565b811461073457600080fd5b50565b60008135905061074681610720565b92915050565b6000602082840312156107625761076161071b565b5b600061077084828501610737565b91505092915050565b600073ffffffffffffffffffffffffffffffffffffffff82169050919050565b60006107a482610779565b9050919050565b6107b481610799565b82525050565b60006020820190506107cf60008301846107ab565b92915050565b600081519050919050565b600082825260208201905092915050565b6000819050602082019050919050565b61080a81610799565b82525050565b600061081c8383610801565b60208301905092915050565b6000602082019050919050565b6000610840826107d5565b61084a81856107e0565b9350610855836107f1565b8060005b8381101561088657815161086d8882610810565b975061087883610828565b925050600181019050610859565b5085935050505092915050565b600060208201905081810360008301526108ad8184610835565b905092915050565b60006108c082610779565b9050919050565b6108d0816108b5565b82525050565b60006020820190506108eb60008301846108c7565b92915050565b7f4e487b7100000000000000000000000000000000000000000000000000000000600052601260045260246000fd5b600061092b826106e7565b9150610936836106e7565b925082610946576109456108f1565b5b828206905092915050565b600082825260208201905092915050565b7f4d7573742068617665206120736f75726365206f662072616e646f6d6e65737360008201527f206265666f72652063686f6f73696e672077696e6e6572000000000000000000602082015250565b60006109be603783610951565b91506109c982610962565b604082019050919050565b600060208201905081810360008301526109ed816109b1565b9050919050565b7f4e487b7100000000000000000000000000000000000000000000000000000000600052601160045260246000fd5b6000610a2e826106e7565b9150610a39836106e7565b925082821015610a4c57610a4b6109f4565b5b828203905092915050565b7f4e487b7100000000000000000000000000000000000000000000000000000000600052603260045260246000fd5b7f4e487b7100000000000000000000000000000000000000000000000000000000600052604160045260246000fd5b60008160601b9050919050565b6000610acd82610ab5565b9050919050565b6000610adf82610ac2565b9050919050565b610af7610af2826108b5565b610ad4565b82525050565b6000819050919050565b610b18610b13826106e7565b610afd565b82525050565b6000610b2a8285610ae6565b601482019150610b3a8284610b07565b602082019150819050939250505056fea264697066735822122077d9d9be8471dbd3204172ec3c368f6b3782ca0197f2d369326125e4b560e76664736f6c634300080d0033",
  "immutableReferences": {},
  "source": "// SPDX-License-Identifier: MIT\n\npragma solidity ^0.8.13;\n\ncontract Lottery {\n    address public owner;\n    address payable[] public players;\n    uint public lotteryId;\n    uint public randomResult;\n    mapping (uint => address payable) public lotteryHistory;\n\n    constructor() {\n        owner = msg.sender;\n        lotteryId = 1;\n    }\n\n    function getWinnerByLottery(uint lottery) public view returns (address payable) {\n        return lotteryHistory[lottery];\n    }\n\n    function getBalance() public view returns (uint) {\n        return address(this).balance;\n    }\n\n    function getPlayers() public view returns (address payable[] memory) {\n        return players;\n    }\n\n    function enter() public payable {\n        require(msg.value > .01 ether);\n\n        // address of player entering lottery\n        players.push(payable(msg.sender));\n    }\n\n    function getRandomNumber() public returns (uint) {\n        randomResult=uint(keccak256(abi.encodePacked(owner, block.timestamp)));\n        return randomResult;\n    }\n\n    function pickWinner() public  payable{\n        require(players.length > 0);\n        uint index ;\n        index= getRandomNumber() % players.length;\n\n        //lotteryHistory[lotteryId] = players[index];\n        //lotteryId++;\n    }\n\n    function payWinner() public payable{\n        require(randomResult > 0, \"Must have a source of randomness before choosing winner\");\n        uint index = players.length-1;\n        players[index].transfer(address(this).balance);\n\n    \n        // reset the state of the contract\n        players = new address payable[](0);\n    }\n\n    modifier onlyowner() {\n      require(msg.sender == owner);\n      _;\n    }\n}",
  "sourcePath": "/Users/sunyingjin/EE6883/ELENE6883_Final-Project/contracts/Lottery.sol",
  "compiler": {
    "name": "solc",
    "version": "0.8.13+commit.abaa5c0e.Emscripten.clang"
  },
  "schemaVersion": "3.4.7",
  "updatedAt": "2022-05-01T15:34:49.773Z",
  "devdoc": {
    "kind": "dev",
    "methods": {},
    "version": 1
  },
  "userdoc": {
    "kind": "user",
    "methods": {},
    "version": 1
  }
}