{
  "contractName": "LotTokenSale",
  "abi": [
    {
      "inputs": [
        {
          "internalType": "contract LotToken",
          "name": "_tokenContract",
          "type": "address"
        },
        {
          "internalType": "uint256",
          "name": "_tokenPrice",
          "type": "uint256"
        }
      ],
      "stateMutability": "nonpayable",
      "type": "constructor"
    },
    {
      "anonymous": false,
      "inputs": [
        {
          "indexed": false,
          "internalType": "address",
          "name": "_buyer",
          "type": "address"
        },
        {
          "indexed": false,
          "internalType": "uint256",
          "name": "_amount",
          "type": "uint256"
        }
      ],
      "name": "Sell",
      "type": "event"
    },
    {
      "inputs": [],
      "name": "admin",
      "outputs": [
        {
          "internalType": "address payable",
          "name": "",
          "type": "address"
        }
      ],
      "stateMutability": "view",
      "type": "function",
      "constant": true
    },
    {
      "inputs": [],
      "name": "tokenContract",
      "outputs": [
        {
          "internalType": "contract LotToken",
          "name": "",
          "type": "address"
        }
      ],
      "stateMutability": "view",
      "type": "function",
      "constant": true
    },
    {
      "inputs": [],
      "name": "tokenPrice",
      "outputs": [
        {
          "internalType": "uint256",
          "name": "",
          "type": "uint256"
        }
      ],
      "stateMutability": "view",
      "type": "function",
      "constant": true
    },
    {
      "inputs": [],
      "name": "tokensSold",
      "outputs": [
        {
          "internalType": "uint256",
          "name": "",
          "type": "uint256"
        }
      ],
      "stateMutability": "view",
      "type": "function",
      "constant": true
    },
    {
      "inputs": [],
      "name": "getTokenSold",
      "outputs": [
        {
          "internalType": "uint256",
          "name": "tokenSold",
          "type": "uint256"
        }
      ],
      "stateMutability": "nonpayable",
      "type": "function"
    },
    {
      "inputs": [
        {
          "internalType": "uint256",
          "name": "_numberOfTokens",
          "type": "uint256"
        }
      ],
      "name": "buyTokens",
      "outputs": [],
      "stateMutability": "payable",
      "type": "function",
      "payable": true
    },
    {
      "inputs": [],
      "name": "endSale",
      "outputs": [],
      "stateMutability": "nonpayable",
      "type": "function"
    }
  ],
  "bytecode": "0x608060405234801561001057600080fd5b50604051610af8380380610af88339818101604052810190610032919061016c565b336000806101000a81548173ffffffffffffffffffffffffffffffffffffffff021916908373ffffffffffffffffffffffffffffffffffffffff16021790555081600160006101000a81548173ffffffffffffffffffffffffffffffffffffffff021916908373ffffffffffffffffffffffffffffffffffffffff1602179055508060028190555050506101ac565b600080fd5b600073ffffffffffffffffffffffffffffffffffffffff82169050919050565b60006100f1826100c6565b9050919050565b6000610103826100e6565b9050919050565b610113816100f8565b811461011e57600080fd5b50565b6000815190506101308161010a565b92915050565b6000819050919050565b61014981610136565b811461015457600080fd5b50565b60008151905061016681610140565b92915050565b60008060408385031215610183576101826100c1565b5b600061019185828601610121565b92505060206101a285828601610157565b9150509250929050565b61093d806101bb6000396000f3fe6080604052600436106100705760003560e01c806355a373d61161004e57806355a373d6146100d35780637ff9b596146100fe57806394d7736314610129578063f851a4401461015457610070565b80633610724e14610075578063380d831b14610091578063518ab2a8146100a8575b600080fd5b61008f600480360381019061008a91906105f4565b61017f565b005b34801561009d57600080fd5b506100a661019b565b005b3480156100b457600080fd5b506100bd6103c0565b6040516100ca9190610630565b60405180910390f35b3480156100df57600080fd5b506100e86103c6565b6040516100f591906106ca565b60405180910390f35b34801561010a57600080fd5b506101136103ec565b6040516101209190610630565b60405180910390f35b34801561013557600080fd5b5061013e6103f2565b60405161014b9190610630565b60405180910390f35b34801561016057600080fd5b50610169610595565b6040516101769190610706565b60405180910390f35b80600360008282546101919190610750565b9250508190555050565b60008054906101000a900473ffffffffffffffffffffffffffffffffffffffff1673ffffffffffffffffffffffffffffffffffffffff163373ffffffffffffffffffffffffffffffffffffffff16146101f357600080fd5b600160009054906101000a900473ffffffffffffffffffffffffffffffffffffffff1673ffffffffffffffffffffffffffffffffffffffff1663a9059cbb60008054906101000a900473ffffffffffffffffffffffffffffffffffffffff16600160009054906101000a900473ffffffffffffffffffffffffffffffffffffffff1673ffffffffffffffffffffffffffffffffffffffff166370a08231306040518263ffffffff1660e01b81526004016102ad91906107c7565b602060405180830381865afa1580156102ca573d6000803e3d6000fd5b505050506040513d601f19601f820116820180604052508101906102ee91906107f7565b6040518363ffffffff1660e01b815260040161030b929190610845565b6020604051808303816000875af115801561032a573d6000803e3d6000fd5b505050506040513d601f19601f8201168201806040525081019061034e91906108a6565b61035757600080fd5b60008054906101000a900473ffffffffffffffffffffffffffffffffffffffff1673ffffffffffffffffffffffffffffffffffffffff166108fc479081150290604051600060405180830381858888f193505050501580156103bd573d6000803e3d6000fd5b50565b60035481565b600160009054906101000a900473ffffffffffffffffffffffffffffffffffffffff1681565b60025481565b60008060009054906101000a900473ffffffffffffffffffffffffffffffffffffffff1673ffffffffffffffffffffffffffffffffffffffff163373ffffffffffffffffffffffffffffffffffffffff161461044d57600080fd5b6000600160009054906101000a900473ffffffffffffffffffffffffffffffffffffffff1673ffffffffffffffffffffffffffffffffffffffff166318160ddd6040518163ffffffff1660e01b8152600401602060405180830381865afa1580156104bc573d6000803e3d6000fd5b505050506040513d601f19601f820116820180604052508101906104e091906107f7565b90506000600160009054906101000a900473ffffffffffffffffffffffffffffffffffffffff1673ffffffffffffffffffffffffffffffffffffffff166370a08231306040518263ffffffff1660e01b815260040161053f91906107c7565b602060405180830381865afa15801561055c573d6000803e3d6000fd5b505050506040513d601f19601f8201168201806040525081019061058091906107f7565b9050808261058e91906108d3565b9250505090565b60008054906101000a900473ffffffffffffffffffffffffffffffffffffffff1681565b600080fd5b6000819050919050565b6105d1816105be565b81146105dc57600080fd5b50565b6000813590506105ee816105c8565b92915050565b60006020828403121561060a576106096105b9565b5b6000610618848285016105df565b91505092915050565b61062a816105be565b82525050565b60006020820190506106456000830184610621565b92915050565b600073ffffffffffffffffffffffffffffffffffffffff82169050919050565b6000819050919050565b600061069061068b6106868461064b565b61066b565b61064b565b9050919050565b60006106a282610675565b9050919050565b60006106b482610697565b9050919050565b6106c4816106a9565b82525050565b60006020820190506106df60008301846106bb565b92915050565b60006106f08261064b565b9050919050565b610700816106e5565b82525050565b600060208201905061071b60008301846106f7565b92915050565b7f4e487b7100000000000000000000000000000000000000000000000000000000600052601160045260246000fd5b600061075b826105be565b9150610766836105be565b9250827fffffffffffffffffffffffffffffffffffffffffffffffffffffffffffffffff0382111561079b5761079a610721565b5b828201905092915050565b60006107b18261064b565b9050919050565b6107c1816107a6565b82525050565b60006020820190506107dc60008301846107b8565b92915050565b6000815190506107f1816105c8565b92915050565b60006020828403121561080d5761080c6105b9565b5b600061081b848285016107e2565b91505092915050565b600061082f82610697565b9050919050565b61083f81610824565b82525050565b600060408201905061085a6000830185610836565b6108676020830184610621565b9392505050565b60008115159050919050565b6108838161086e565b811461088e57600080fd5b50565b6000815190506108a08161087a565b92915050565b6000602082840312156108bc576108bb6105b9565b5b60006108ca84828501610891565b91505092915050565b60006108de826105be565b91506108e9836105be565b9250828210156108fc576108fb610721565b5b82820390509291505056fea26469706673582212206e837219f0cf0ce0111fc0fb6d767fcb3d31983f70de7bac495618bf9013d49d64736f6c634300080d0033",
  "immutableReferences": {},
  "source": "// SPDX-License-Identifier: MIT\npragma solidity ^0.8.13;\nimport \"./LotToken.sol\";\n\ncontract LotTokenSale {\n\t// no public: we don't want to expose address of admin\n\taddress payable public admin;\n\tLotToken public tokenContract; //addr of lotTOken!!!!\n\tuint256 public tokenPrice;\n\tuint256 public tokensSold;\n\n\tevent Sell(address _buyer, uint256 _amount);\n\n\tconstructor(LotToken _tokenContract, uint256 _tokenPrice) {\n\t\t// Assign an admin\n\t\tadmin = payable(msg.sender);\n\t\t// Token Contract\n\t\ttokenContract = _tokenContract;\n\t\t// Token Price\n\t\ttokenPrice = _tokenPrice;\n\t}\n\n    // multiply\n    function multiply(uint x, uint y) internal pure returns (uint z) {\n    \trequire(y == 0 || (z = x * y) / y == x);\n    }\n\tfunction getTokenSold() public returns (uint256 tokenSold){\n\t\t// Require admin\n\t\trequire(msg.sender == admin);\n\t\tuint256 supply = tokenContract.totalSupply();\n\t\tuint256 adminBalance = tokenContract.balanceOf(address(this));\n        return supply - adminBalance;\n\t}\n\t// Buy tokens\n\tfunction buyTokens(uint256 _numberOfTokens) public payable {\n\t\t// Require that value is equal to tokens\n\t\t//require(msg.value == multiply(_numberOfTokens, tokenPrice));\n\t\t// Require that the contract has enough tokens\n\t\t//require(tokenContract.balanceOf(address(this)) >= _numberOfTokens);\n\t\t// Require that a transfer is successful\n\t\t//require(tokenContract.transfer(msg.sender, _numberOfTokens));\n\t\t// Keep track of tokensSold\n\t\ttokensSold += _numberOfTokens;\n\t\t// Trigger sell event\n\t\t//emit Sell(msg.sender, _numberOfTokens);\n\t}\n\n\tfunction endSale() public {\n\t\t// Require admin\n\t\trequire(msg.sender == admin);\n\t\t// Transfer reamining dapp tokens to admin\n\t\trequire(tokenContract.transfer(admin, tokenContract.balanceOf(address(this))));\n\t\t// Destroy contract\n\t\tadmin.transfer(address(this).balance);\n\t}\n}",
  "sourcePath": "/Users/sunyingjin/EE6883/ELENE6883_Final-Project/contracts/LotTokenSale.sol",
  "compiler": {
    "name": "solc",
    "version": "0.8.13+commit.abaa5c0e.Emscripten.clang"
  },
  "schemaVersion": "3.4.7",
  "updatedAt": "2022-05-13T18:26:13.108Z",
  "networkType": "ethereum",
  "devdoc": {
    "kind": "dev",
    "methods": {},
    "version": 1
  },
  "userdoc": {
    "kind": "user",
    "methods": {},
    "version": 1
  }
}