{
  "contractName": "LotTokenSale",
  "abi": [
    {
      "inputs": [
        {
          "internalType": "contract LotToken",
          "name": "_tokenContract",
          "type": "address"
        },
        {
          "internalType": "uint256",
          "name": "_tokenPrice",
          "type": "uint256"
        }
      ],
      "stateMutability": "nonpayable",
      "type": "constructor"
    },
    {
      "anonymous": false,
      "inputs": [
        {
          "indexed": false,
          "internalType": "address",
          "name": "_buyer",
          "type": "address"
        },
        {
          "indexed": false,
          "internalType": "uint256",
          "name": "_amount",
          "type": "uint256"
        }
      ],
      "name": "Sell",
      "type": "event"
    },
    {
      "inputs": [],
      "name": "tokenContract",
      "outputs": [
        {
          "internalType": "contract LotToken",
          "name": "",
          "type": "address"
        }
      ],
      "stateMutability": "view",
      "type": "function",
      "constant": true
    },
    {
      "inputs": [],
      "name": "tokenPrice",
      "outputs": [
        {
          "internalType": "uint256",
          "name": "",
          "type": "uint256"
        }
      ],
      "stateMutability": "view",
      "type": "function",
      "constant": true
    },
    {
      "inputs": [],
      "name": "tokensSold",
      "outputs": [
        {
          "internalType": "uint256",
          "name": "",
          "type": "uint256"
        }
      ],
      "stateMutability": "view",
      "type": "function",
      "constant": true
    },
    {
      "inputs": [],
      "name": "getTokenSold",
      "outputs": [
        {
          "internalType": "uint256",
          "name": "tokenSold",
          "type": "uint256"
        }
      ],
      "stateMutability": "nonpayable",
      "type": "function"
    },
    {
      "inputs": [
        {
          "internalType": "uint256",
          "name": "_numberOfTokens",
          "type": "uint256"
        }
      ],
      "name": "buyTokens",
      "outputs": [],
      "stateMutability": "payable",
      "type": "function",
      "payable": true
    },
    {
      "inputs": [],
      "name": "endSale",
      "outputs": [],
      "stateMutability": "nonpayable",
      "type": "function"
    }
  ],
  "bytecode": "0x60806040523480156200001157600080fd5b5060405162000d2938038062000d29833981810160405281019062000037919062000180565b336000806101000a81548173ffffffffffffffffffffffffffffffffffffffff021916908373ffffffffffffffffffffffffffffffffffffffff16021790555081600160006101000a81548173ffffffffffffffffffffffffffffffffffffffff021916908373ffffffffffffffffffffffffffffffffffffffff160217905550806002819055505050620001c7565b600080fd5b600073ffffffffffffffffffffffffffffffffffffffff82169050919050565b6000620000f982620000cc565b9050919050565b60006200010d82620000ec565b9050919050565b6200011f8162000100565b81146200012b57600080fd5b50565b6000815190506200013f8162000114565b92915050565b6000819050919050565b6200015a8162000145565b81146200016657600080fd5b50565b6000815190506200017a816200014f565b92915050565b600080604083850312156200019a5762000199620000c7565b5b6000620001aa858286016200012e565b9250506020620001bd8582860162000169565b9150509250929050565b610b5280620001d76000396000f3fe6080604052600436106100555760003560e01c80633610724e1461005a578063380d831b14610076578063518ab2a81461008d57806355a373d6146100b85780637ff9b596146100e357806394d773631461010e575b600080fd5b610074600480360381019061006f9190610762565b610139565b005b34801561008257600080fd5b5061008b6102f6565b005b34801561009957600080fd5b506100a261051b565b6040516100af919061079e565b60405180910390f35b3480156100c457600080fd5b506100cd610521565b6040516100da9190610838565b60405180910390f35b3480156100ef57600080fd5b506100f8610547565b604051610105919061079e565b60405180910390f35b34801561011a57600080fd5b5061012361054d565b604051610130919061079e565b60405180910390f35b610145816002546106f0565b341461015057600080fd5b80600160009054906101000a900473ffffffffffffffffffffffffffffffffffffffff1673ffffffffffffffffffffffffffffffffffffffff166370a08231306040518263ffffffff1660e01b81526004016101ac9190610874565b602060405180830381865afa1580156101c9573d6000803e3d6000fd5b505050506040513d601f19601f820116820180604052508101906101ed91906108a4565b10156101f857600080fd5b600160009054906101000a900473ffffffffffffffffffffffffffffffffffffffff1673ffffffffffffffffffffffffffffffffffffffff1663a9059cbb33836040518363ffffffff1660e01b81526004016102559291906108d1565b6020604051808303816000875af1158015610274573d6000803e3d6000fd5b505050506040513d601f19601f820116820180604052508101906102989190610932565b6102a157600080fd5b80600360008282546102b3919061098e565b925050819055507f5e5e995ce3133561afceaa51a9a154d5db228cd7525d34df5185582c18d3df0933826040516102eb9291906108d1565b60405180910390a150565b60008054906101000a900473ffffffffffffffffffffffffffffffffffffffff1673ffffffffffffffffffffffffffffffffffffffff163373ffffffffffffffffffffffffffffffffffffffff161461034e57600080fd5b600160009054906101000a900473ffffffffffffffffffffffffffffffffffffffff1673ffffffffffffffffffffffffffffffffffffffff1663a9059cbb60008054906101000a900473ffffffffffffffffffffffffffffffffffffffff16600160009054906101000a900473ffffffffffffffffffffffffffffffffffffffff1673ffffffffffffffffffffffffffffffffffffffff166370a08231306040518263ffffffff1660e01b81526004016104089190610874565b602060405180830381865afa158015610425573d6000803e3d6000fd5b505050506040513d601f19601f8201168201806040525081019061044991906108a4565b6040518363ffffffff1660e01b8152600401610466929190610a05565b6020604051808303816000875af1158015610485573d6000803e3d6000fd5b505050506040513d601f19601f820116820180604052508101906104a99190610932565b6104b257600080fd5b60008054906101000a900473ffffffffffffffffffffffffffffffffffffffff1673ffffffffffffffffffffffffffffffffffffffff166108fc479081150290604051600060405180830381858888f19350505050158015610518573d6000803e3d6000fd5b50565b60035481565b600160009054906101000a900473ffffffffffffffffffffffffffffffffffffffff1681565b60025481565b60008060009054906101000a900473ffffffffffffffffffffffffffffffffffffffff1673ffffffffffffffffffffffffffffffffffffffff163373ffffffffffffffffffffffffffffffffffffffff16146105a857600080fd5b6000600160009054906101000a900473ffffffffffffffffffffffffffffffffffffffff1673ffffffffffffffffffffffffffffffffffffffff166318160ddd6040518163ffffffff1660e01b8152600401602060405180830381865afa158015610617573d6000803e3d6000fd5b505050506040513d601f19601f8201168201806040525081019061063b91906108a4565b90506000600160009054906101000a900473ffffffffffffffffffffffffffffffffffffffff1673ffffffffffffffffffffffffffffffffffffffff166370a08231306040518263ffffffff1660e01b815260040161069a9190610874565b602060405180830381865afa1580156106b7573d6000803e3d6000fd5b505050506040513d601f19601f820116820180604052508101906106db91906108a4565b905080826106e99190610a2e565b9250505090565b6000808214806107185750828283856107099190610a62565b9250826107169190610aeb565b145b61072157600080fd5b92915050565b600080fd5b6000819050919050565b61073f8161072c565b811461074a57600080fd5b50565b60008135905061075c81610736565b92915050565b60006020828403121561077857610777610727565b5b60006107868482850161074d565b91505092915050565b6107988161072c565b82525050565b60006020820190506107b3600083018461078f565b92915050565b600073ffffffffffffffffffffffffffffffffffffffff82169050919050565b6000819050919050565b60006107fe6107f96107f4846107b9565b6107d9565b6107b9565b9050919050565b6000610810826107e3565b9050919050565b600061082282610805565b9050919050565b61083281610817565b82525050565b600060208201905061084d6000830184610829565b92915050565b600061085e826107b9565b9050919050565b61086e81610853565b82525050565b60006020820190506108896000830184610865565b92915050565b60008151905061089e81610736565b92915050565b6000602082840312156108ba576108b9610727565b5b60006108c88482850161088f565b91505092915050565b60006040820190506108e66000830185610865565b6108f3602083018461078f565b9392505050565b60008115159050919050565b61090f816108fa565b811461091a57600080fd5b50565b60008151905061092c81610906565b92915050565b60006020828403121561094857610947610727565b5b60006109568482850161091d565b91505092915050565b7f4e487b7100000000000000000000000000000000000000000000000000000000600052601160045260246000fd5b60006109998261072c565b91506109a48361072c565b9250827fffffffffffffffffffffffffffffffffffffffffffffffffffffffffffffffff038211156109d9576109d861095f565b5b828201905092915050565b60006109ef82610805565b9050919050565b6109ff816109e4565b82525050565b6000604082019050610a1a60008301856109f6565b610a27602083018461078f565b9392505050565b6000610a398261072c565b9150610a448361072c565b925082821015610a5757610a5661095f565b5b828203905092915050565b6000610a6d8261072c565b9150610a788361072c565b9250817fffffffffffffffffffffffffffffffffffffffffffffffffffffffffffffffff0483118215151615610ab157610ab061095f565b5b828202905092915050565b7f4e487b7100000000000000000000000000000000000000000000000000000000600052601260045260246000fd5b6000610af68261072c565b9150610b018361072c565b925082610b1157610b10610abc565b5b82820490509291505056fea26469706673582212206a1fb67d3fc7478d981f392c672402743540a4a95d5d560f1a17ee926e78ef6b64736f6c634300080d0033",
  "immutableReferences": {},
  "source": "// SPDX-License-Identifier: MIT\npragma solidity ^0.8.13;\nimport \"./LotToken.sol\";\n\ncontract LotTokenSale {\n\t// no public: we don't want to expose address of admin\n\taddress payable admin;\n\tLotToken public tokenContract;\n\tuint256 public tokenPrice;\n\tuint256 public tokensSold;\n\n\tevent Sell(address _buyer, uint256 _amount);\n\n\tconstructor(LotToken _tokenContract, uint256 _tokenPrice) {\n\t\t// Assign an admin\n\t\tadmin = payable(msg.sender);\n\t\t// Token Contract\n\t\ttokenContract = _tokenContract;\n\t\t// Token Price\n\t\ttokenPrice = _tokenPrice;\n\t}\n\n    // multiply\n    function multiply(uint x, uint y) internal pure returns (uint z) {\n    \trequire(y == 0 || (z = x * y) / y == x);\n    }\n\tfunction getTokenSold() public returns (uint256 tokenSold){\n\t\t// Require admin\n\t\trequire(msg.sender == admin);\n\t\tuint256 supply = tokenContract.totalSupply();\n\t\tuint256 adminBalance = tokenContract.balanceOf(address(this));\n        return supply - adminBalance;\n\t}\n\t// Buy tokens\n\tfunction buyTokens(uint256 _numberOfTokens) public payable {\n\t\t// Require that value is equal to tokens\n\t\trequire(msg.value == multiply(_numberOfTokens, tokenPrice));\n\t\t// Require that the contract has enough tokens\n\t\trequire(tokenContract.balanceOf(address(this)) >= _numberOfTokens);\n\t\t// Require that a transfer is successful\n\t\trequire(tokenContract.transfer(msg.sender, _numberOfTokens));\n\t\t// Keep track of tokensSold\n\t\ttokensSold += _numberOfTokens;\n\t\t// Trigger sell event\n\t\temit Sell(msg.sender, _numberOfTokens);\n\t}\n\n\tfunction endSale() public {\n\t\t// Require admin\n\t\trequire(msg.sender == admin);\n\t\t// Transfer reamining dapp tokens to admin\n\t\trequire(tokenContract.transfer(admin, tokenContract.balanceOf(address(this))));\n\t\t// Destroy contract\n\t\tadmin.transfer(address(this).balance);\n\t}\n}",
  "sourcePath": "/Users/sunyingjin/EE6883/ELENE6883_Final-Project/contracts/LotTokenSale.sol",
  "compiler": {
    "name": "solc",
    "version": "0.8.13+commit.abaa5c0e.Emscripten.clang"
  },
  "schemaVersion": "3.4.7",
  "updatedAt": "2022-05-10T00:14:59.712Z",
  "networkType": "ethereum",
  "devdoc": {
    "kind": "dev",
    "methods": {},
    "version": 1
  },
  "userdoc": {
    "kind": "user",
    "methods": {},
    "version": 1
  }
}