{
  "contractName": "Lottery",
  "abi": [
    {
      "inputs": [],
      "stateMutability": "nonpayable",
      "type": "constructor"
    },
    {
      "inputs": [
        {
          "internalType": "uint256",
          "name": "",
          "type": "uint256"
        }
      ],
      "name": "lotteryHistory",
      "outputs": [
        {
          "internalType": "address payable",
          "name": "",
          "type": "address"
        }
      ],
      "stateMutability": "view",
      "type": "function"
    },
    {
      "inputs": [],
      "name": "lotteryId",
      "outputs": [
        {
          "internalType": "uint256",
          "name": "",
          "type": "uint256"
        }
      ],
      "stateMutability": "view",
      "type": "function"
    },
    {
      "inputs": [],
      "name": "owner",
      "outputs": [
        {
          "internalType": "address",
          "name": "",
          "type": "address"
        }
      ],
      "stateMutability": "view",
      "type": "function"
    },
    {
      "inputs": [
        {
          "internalType": "uint256",
          "name": "",
          "type": "uint256"
        }
      ],
      "name": "players",
      "outputs": [
        {
          "internalType": "address payable",
          "name": "",
          "type": "address"
        }
      ],
      "stateMutability": "view",
      "type": "function"
    },
    {
      "inputs": [],
      "name": "randomResult",
      "outputs": [
        {
          "internalType": "uint256",
          "name": "",
          "type": "uint256"
        }
      ],
      "stateMutability": "view",
      "type": "function"
    },
    {
      "inputs": [
        {
          "internalType": "uint256",
          "name": "lottery",
          "type": "uint256"
        }
      ],
      "name": "getWinnerByLottery",
      "outputs": [
        {
          "internalType": "address payable",
          "name": "",
          "type": "address"
        }
      ],
      "stateMutability": "view",
      "type": "function"
    },
    {
      "inputs": [],
      "name": "getBalance",
      "outputs": [
        {
          "internalType": "uint256",
          "name": "",
          "type": "uint256"
        }
      ],
      "stateMutability": "view",
      "type": "function"
    },
    {
      "inputs": [],
      "name": "getPlayers",
      "outputs": [
        {
          "internalType": "address payable[]",
          "name": "",
          "type": "address[]"
        }
      ],
      "stateMutability": "view",
      "type": "function"
    },
    {
      "inputs": [],
      "name": "enter",
      "outputs": [],
      "stateMutability": "payable",
      "type": "function"
    },
    {
      "inputs": [],
      "name": "getRandomNumber",
      "outputs": [
        {
          "internalType": "uint256",
          "name": "",
          "type": "uint256"
        }
      ],
      "stateMutability": "nonpayable",
      "type": "function"
    },
    {
      "inputs": [],
      "name": "pickWinner",
      "outputs": [],
      "stateMutability": "payable",
      "type": "function"
    },
    {
      "inputs": [],
      "name": "payWinner",
      "outputs": [],
      "stateMutability": "payable",
      "type": "function"
    }
  ],
  "bytecode": "0x608060405234801561001057600080fd5b50336000806101000a81548173ffffffffffffffffffffffffffffffffffffffff021916908373ffffffffffffffffffffffffffffffffffffffff1602179055506001600281905550610c5f806100686000396000f3fe6080604052600436106100a75760003560e01c80638da5cb5b116100645780638da5cb5b146101b1578063be71248a146101dc578063dbdff2c1146101e6578063e580f47b14610211578063e97dcb621461023c578063f71d96cb14610246576100a7565b806312065fe0146100ac578063281d098d146100d757806342619f66146101145780635d495aea1461013f5780636d6fe230146101495780638b5b9ccc14610186575b600080fd5b3480156100b857600080fd5b506100c1610283565b6040516100ce9190610797565b60405180910390f35b3480156100e357600080fd5b506100fe60048036038101906100f991906107e3565b61028b565b60405161010b9190610851565b60405180910390f35b34801561012057600080fd5b506101296102c8565b6040516101369190610797565b60405180910390f35b6101476102ce565b005b34801561015557600080fd5b50610170600480360381019061016b91906107e3565b6103a9565b60405161017d9190610851565b60405180910390f35b34801561019257600080fd5b5061019b6103dc565b6040516101a8919061092a565b60405180910390f35b3480156101bd57600080fd5b506101c661046a565b6040516101d3919061096d565b60405180910390f35b6101e461048e565b005b3480156101f257600080fd5b506101fb6105bd565b6040516102089190610797565b60405180910390f35b34801561021d57600080fd5b5061022661061a565b6040516102339190610797565b60405180910390f35b610244610620565b005b34801561025257600080fd5b5061026d600480360381019061026891906107e3565b610698565b60405161027a9190610851565b60405180910390f35b600047905090565b60006004600083815260200190815260200160002060009054906101000a900473ffffffffffffffffffffffffffffffffffffffff169050919050565b60035481565b6000600180549050116102e057600080fd5b60006001805490506102f06105bd565b6102fa91906109b7565b9050600181815481106103105761030f6109e8565b5b9060005260206000200160009054906101000a900473ffffffffffffffffffffffffffffffffffffffff1660046000600254815260200190815260200160002060006101000a81548173ffffffffffffffffffffffffffffffffffffffff021916908373ffffffffffffffffffffffffffffffffffffffff160217905550600260008154809291906103a190610a46565b919050555050565b60046020528060005260406000206000915054906101000a900473ffffffffffffffffffffffffffffffffffffffff1681565b6060600180548060200260200160405190810160405280929190818152602001828054801561046057602002820191906000526020600020905b8160009054906101000a900473ffffffffffffffffffffffffffffffffffffffff1673ffffffffffffffffffffffffffffffffffffffff1681526020019060010190808311610416575b5050505050905090565b60008054906101000a900473ffffffffffffffffffffffffffffffffffffffff1681565b6000600354116104d3576040517f08c379a00000000000000000000000000000000000000000000000000000000081526004016104ca90610b11565b60405180910390fd5b6004600060016002546104e69190610b31565b815260200190815260200160002060009054906101000a900473ffffffffffffffffffffffffffffffffffffffff1673ffffffffffffffffffffffffffffffffffffffff166108fc479081150290604051600060405180830381858888f1935050505015801561055a573d6000803e3d6000fd5b50600067ffffffffffffffff81111561057657610575610b65565b5b6040519080825280602002602001820160405280156105a45781602001602082028036833780820191505090505b50600190805190602001906105ba9291906106d7565b50565b60008060009054906101000a900473ffffffffffffffffffffffffffffffffffffffff16426040516020016105f3929190610bfd565b6040516020818303038152906040528051906020012060001c600381905550600354905090565b60025481565b662386f26fc10000341161063357600080fd5b6001339080600181540180825580915050600190039060005260206000200160009091909190916101000a81548173ffffffffffffffffffffffffffffffffffffffff021916908373ffffffffffffffffffffffffffffffffffffffff160217905550565b600181815481106106a857600080fd5b906000526020600020016000915054906101000a900473ffffffffffffffffffffffffffffffffffffffff1681565b828054828255906000526020600020908101928215610750579160200282015b8281111561074f5782518260006101000a81548173ffffffffffffffffffffffffffffffffffffffff021916908373ffffffffffffffffffffffffffffffffffffffff160217905550916020019190600101906106f7565b5b50905061075d9190610761565b5090565b5b8082111561077a576000816000905550600101610762565b5090565b6000819050919050565b6107918161077e565b82525050565b60006020820190506107ac6000830184610788565b92915050565b600080fd5b6107c08161077e565b81146107cb57600080fd5b50565b6000813590506107dd816107b7565b92915050565b6000602082840312156107f9576107f86107b2565b5b6000610807848285016107ce565b91505092915050565b600073ffffffffffffffffffffffffffffffffffffffff82169050919050565b600061083b82610810565b9050919050565b61084b81610830565b82525050565b60006020820190506108666000830184610842565b92915050565b600081519050919050565b600082825260208201905092915050565b6000819050602082019050919050565b6108a181610830565b82525050565b60006108b38383610898565b60208301905092915050565b6000602082019050919050565b60006108d78261086c565b6108e18185610877565b93506108ec83610888565b8060005b8381101561091d57815161090488826108a7565b975061090f836108bf565b9250506001810190506108f0565b5085935050505092915050565b6000602082019050818103600083015261094481846108cc565b905092915050565b600061095782610810565b9050919050565b6109678161094c565b82525050565b6000602082019050610982600083018461095e565b92915050565b7f4e487b7100000000000000000000000000000000000000000000000000000000600052601260045260246000fd5b60006109c28261077e565b91506109cd8361077e565b9250826109dd576109dc610988565b5b828206905092915050565b7f4e487b7100000000000000000000000000000000000000000000000000000000600052603260045260246000fd5b7f4e487b7100000000000000000000000000000000000000000000000000000000600052601160045260246000fd5b6000610a518261077e565b91507fffffffffffffffffffffffffffffffffffffffffffffffffffffffffffffffff8203610a8357610a82610a17565b5b600182019050919050565b600082825260208201905092915050565b7f4d7573742068617665206120736f75726365206f662072616e646f6d6e65737360008201527f206265666f72652063686f6f73696e672077696e6e6572000000000000000000602082015250565b6000610afb603783610a8e565b9150610b0682610a9f565b604082019050919050565b60006020820190508181036000830152610b2a81610aee565b9050919050565b6000610b3c8261077e565b9150610b478361077e565b925082821015610b5a57610b59610a17565b5b828203905092915050565b7f4e487b7100000000000000000000000000000000000000000000000000000000600052604160045260246000fd5b60008160601b9050919050565b6000610bac82610b94565b9050919050565b6000610bbe82610ba1565b9050919050565b610bd6610bd18261094c565b610bb3565b82525050565b6000819050919050565b610bf7610bf28261077e565b610bdc565b82525050565b6000610c098285610bc5565b601482019150610c198284610be6565b602082019150819050939250505056fea2646970667358221220c700b86a65bc9129dd7167f2298fe6aa46425301646661d4d34783a99f9ec2fd64736f6c634300080d0033",
  "immutableReferences": {},
  "source": "// SPDX-License-Identifier: MIT\n\npragma solidity ^0.8.13;\n\ncontract Lottery {\n    address public owner;\n    address payable[] public players;\n    uint public lotteryId;\n    uint public randomResult;\n    mapping (uint => address payable) public lotteryHistory;\n\n    constructor() {\n        owner = msg.sender;\n        lotteryId = 1;\n    }\n\n    function getWinnerByLottery(uint lottery) public view returns (address payable) {\n        return lotteryHistory[lottery];\n    }\n\n    function getBalance() public view returns (uint) {\n        return address(this).balance;\n    }\n\n    function getPlayers() public view returns (address payable[] memory) {\n        return players;\n    }\n\n    function enter() public payable {\n        require(msg.value > .01 ether);\n\n        // address of player entering lottery\n        players.push(payable(msg.sender));\n    }\n\n    function getRandomNumber() public returns (uint) {\n        randomResult=uint(keccak256(abi.encodePacked(owner, block.timestamp)));\n        return randomResult;\n    }\n\n    function pickWinner() public  payable{\n        require(players.length > 0);\n        uint index ;\n        index= getRandomNumber() % players.length;\n\n        lotteryHistory[lotteryId] = players[index];\n        lotteryId++;\n    }\n\n    function payWinner() public payable{\n        require(randomResult > 0, \"Must have a source of randomness before choosing winner\");\n        lotteryHistory[lotteryId-1].transfer(address(this).balance);\n\n    \n        // reset the state of the contract\n        players = new address payable[](0);\n    }\n\n    modifier onlyowner() {\n      require(msg.sender == owner);\n      _;\n    }\n}",
  "sourcePath": "/Users/sunyingjin/EE6883/ELENE6883_Final-Project/contracts/Lottery.sol",
  "compiler": {
    "name": "solc",
    "version": "0.8.13+commit.abaa5c0e.Emscripten.clang"
  },
  "schemaVersion": "3.4.7",
  "updatedAt": "2022-05-09T23:35:07.455Z",
  "devdoc": {
    "kind": "dev",
    "methods": {},
    "version": 1
  },
  "userdoc": {
    "kind": "user",
    "methods": {},
    "version": 1
  }
}