{
  "contractName": "Lottery",
  "abi": [
    {
      "inputs": [
        {
          "internalType": "contract LotToken",
          "name": "_tokenContract",
          "type": "address"
        }
      ],
      "stateMutability": "nonpayable",
      "type": "constructor"
    },
    {
      "inputs": [
        {
          "internalType": "uint256",
          "name": "",
          "type": "uint256"
        }
      ],
      "name": "lotteryHistory",
      "outputs": [
        {
          "internalType": "address payable",
          "name": "",
          "type": "address"
        }
      ],
      "stateMutability": "view",
      "type": "function"
    },
    {
      "inputs": [],
      "name": "lotteryId",
      "outputs": [
        {
          "internalType": "uint256",
          "name": "",
          "type": "uint256"
        }
      ],
      "stateMutability": "view",
      "type": "function"
    },
    {
      "inputs": [
        {
          "internalType": "uint256",
          "name": "",
          "type": "uint256"
        }
      ],
      "name": "players",
      "outputs": [
        {
          "internalType": "address payable",
          "name": "",
          "type": "address"
        }
      ],
      "stateMutability": "view",
      "type": "function"
    },
    {
      "inputs": [],
      "name": "tokenContract",
      "outputs": [
        {
          "internalType": "contract LotToken",
          "name": "",
          "type": "address"
        }
      ],
      "stateMutability": "view",
      "type": "function"
    },
    {
      "inputs": [
        {
          "internalType": "uint256",
          "name": "lottery",
          "type": "uint256"
        }
      ],
      "name": "getWinnerByLottery",
      "outputs": [
        {
          "internalType": "address payable",
          "name": "",
          "type": "address"
        }
      ],
      "stateMutability": "view",
      "type": "function"
    },
    {
      "inputs": [],
      "name": "getBalance",
      "outputs": [
        {
          "internalType": "uint256",
          "name": "",
          "type": "uint256"
        }
      ],
      "stateMutability": "view",
      "type": "function"
    },
    {
      "inputs": [],
      "name": "getPlayers",
      "outputs": [
        {
          "internalType": "address payable[]",
          "name": "",
          "type": "address[]"
        }
      ],
      "stateMutability": "view",
      "type": "function"
    },
    {
      "inputs": [],
      "name": "enter",
      "outputs": [],
      "stateMutability": "payable",
      "type": "function"
    },
    {
      "inputs": [],
      "name": "getRandomNumber",
      "outputs": [
        {
          "internalType": "uint256",
          "name": "",
          "type": "uint256"
        }
      ],
      "stateMutability": "view",
      "type": "function"
    },
    {
      "inputs": [],
      "name": "pickWinner",
      "outputs": [],
      "stateMutability": "payable",
      "type": "function"
    }
  ],
  "bytecode": "0x608060405234801561001057600080fd5b50604051610c84380380610c8483398181016040528101906100329190610136565b80600260006101000a81548173ffffffffffffffffffffffffffffffffffffffff021916908373ffffffffffffffffffffffffffffffffffffffff160217905550336000806101000a81548173ffffffffffffffffffffffffffffffffffffffff021916908373ffffffffffffffffffffffffffffffffffffffff160217905550600160038190555050610163565b600080fd5b600073ffffffffffffffffffffffffffffffffffffffff82169050919050565b60006100f1826100c6565b9050919050565b6000610103826100e6565b9050919050565b610113816100f8565b811461011e57600080fd5b50565b6000815190506101308161010a565b92915050565b60006020828403121561014c5761014b6100c1565b5b600061015a84828501610121565b91505092915050565b610b12806101726000396000f3fe6080604052600436106100915760003560e01c80638b5b9ccc116100595780638b5b9ccc14610170578063dbdff2c11461019b578063e580f47b146101c6578063e97dcb62146101f1578063f71d96cb146101fb57610091565b806312065fe014610096578063281d098d146100c157806355a373d6146100fe5780635d495aea146101295780636d6fe23014610133575b600080fd5b3480156100a257600080fd5b506100ab610238565b6040516100b891906106e3565b60405180910390f35b3480156100cd57600080fd5b506100e860048036038101906100e3919061072f565b610240565b6040516100f5919061079d565b60405180910390f35b34801561010a57600080fd5b5061011361027d565b6040516101209190610817565b60405180910390f35b6101316102a3565b005b34801561013f57600080fd5b5061015a6004803603810190610155919061072f565b610451565b604051610167919061079d565b60405180910390f35b34801561017c57600080fd5b50610185610484565b60405161019291906108f0565b60405180910390f35b3480156101a757600080fd5b506101b0610512565b6040516101bd91906106e3565b60405180910390f35b3480156101d257600080fd5b506101db610566565b6040516101e891906106e3565b60405180910390f35b6101f961056c565b005b34801561020757600080fd5b50610222600480360381019061021d919061072f565b6105e4565b60405161022f919061079d565b60405180910390f35b600047905090565b60006004600083815260200190815260200160002060009054906101000a900473ffffffffffffffffffffffffffffffffffffffff169050919050565b600260009054906101000a900473ffffffffffffffffffffffffffffffffffffffff1681565b60006001805490506102b3610512565b6102bd9190610941565b9050600181815481106102d3576102d2610972565b5b9060005260206000200160009054906101000a900473ffffffffffffffffffffffffffffffffffffffff1673ffffffffffffffffffffffffffffffffffffffff166108fc479081150290604051600060405180830381858888f19350505050158015610343573d6000803e3d6000fd5b506001818154811061035857610357610972565b5b9060005260206000200160009054906101000a900473ffffffffffffffffffffffffffffffffffffffff1660046000600354815260200190815260200160002060006101000a81548173ffffffffffffffffffffffffffffffffffffffff021916908373ffffffffffffffffffffffffffffffffffffffff160217905550600360008154809291906103e9906109d0565b9190505550600067ffffffffffffffff81111561040957610408610a18565b5b6040519080825280602002602001820160405280156104375781602001602082028036833780820191505090505b506001908051906020019061044d929190610623565b5050565b60046020528060005260406000206000915054906101000a900473ffffffffffffffffffffffffffffffffffffffff1681565b6060600180548060200260200160405190810160405280929190818152602001828054801561050857602002820191906000526020600020905b8160009054906101000a900473ffffffffffffffffffffffffffffffffffffffff1673ffffffffffffffffffffffffffffffffffffffff16815260200190600101908083116104be575b5050505050905090565b60008060009054906101000a900473ffffffffffffffffffffffffffffffffffffffff1642604051602001610548929190610ab0565b6040516020818303038152906040528051906020012060001c905090565b60035481565b662386f26fc10000341161057f57600080fd5b6001339080600181540180825580915050600190039060005260206000200160009091909190916101000a81548173ffffffffffffffffffffffffffffffffffffffff021916908373ffffffffffffffffffffffffffffffffffffffff160217905550565b600181815481106105f457600080fd5b906000526020600020016000915054906101000a900473ffffffffffffffffffffffffffffffffffffffff1681565b82805482825590600052602060002090810192821561069c579160200282015b8281111561069b5782518260006101000a81548173ffffffffffffffffffffffffffffffffffffffff021916908373ffffffffffffffffffffffffffffffffffffffff16021790555091602001919060010190610643565b5b5090506106a991906106ad565b5090565b5b808211156106c65760008160009055506001016106ae565b5090565b6000819050919050565b6106dd816106ca565b82525050565b60006020820190506106f860008301846106d4565b92915050565b600080fd5b61070c816106ca565b811461071757600080fd5b50565b60008135905061072981610703565b92915050565b600060208284031215610745576107446106fe565b5b60006107538482850161071a565b91505092915050565b600073ffffffffffffffffffffffffffffffffffffffff82169050919050565b60006107878261075c565b9050919050565b6107978161077c565b82525050565b60006020820190506107b2600083018461078e565b92915050565b6000819050919050565b60006107dd6107d86107d38461075c565b6107b8565b61075c565b9050919050565b60006107ef826107c2565b9050919050565b6000610801826107e4565b9050919050565b610811816107f6565b82525050565b600060208201905061082c6000830184610808565b92915050565b600081519050919050565b600082825260208201905092915050565b6000819050602082019050919050565b6108678161077c565b82525050565b6000610879838361085e565b60208301905092915050565b6000602082019050919050565b600061089d82610832565b6108a7818561083d565b93506108b28361084e565b8060005b838110156108e35781516108ca888261086d565b97506108d583610885565b9250506001810190506108b6565b5085935050505092915050565b6000602082019050818103600083015261090a8184610892565b905092915050565b7f4e487b7100000000000000000000000000000000000000000000000000000000600052601260045260246000fd5b600061094c826106ca565b9150610957836106ca565b92508261096757610966610912565b5b828206905092915050565b7f4e487b7100000000000000000000000000000000000000000000000000000000600052603260045260246000fd5b7f4e487b7100000000000000000000000000000000000000000000000000000000600052601160045260246000fd5b60006109db826106ca565b91507fffffffffffffffffffffffffffffffffffffffffffffffffffffffffffffffff8203610a0d57610a0c6109a1565b5b600182019050919050565b7f4e487b7100000000000000000000000000000000000000000000000000000000600052604160045260246000fd5b60008160601b9050919050565b6000610a5f82610a47565b9050919050565b6000610a7182610a54565b9050919050565b610a89610a848261077c565b610a66565b82525050565b6000819050919050565b610aaa610aa5826106ca565b610a8f565b82525050565b6000610abc8285610a78565b601482019150610acc8284610a99565b602082019150819050939250505056fea26469706673582212208fdedee7d2636a60d433e1c0cd4d7189368a2a34f8cfbdb8151540006baebf8664736f6c634300080d0033",
  "immutableReferences": {},
  "source": "// SPDX-License-Identifier: MIT\n\npragma solidity ^0.8.13;\nimport \"./LotToken.sol\";\ncontract Lottery {\n    address payable admin;\n    address payable[] public players;\n    LotToken public tokenContract; //addr of lotTOken!!!!\n    uint public lotteryId;\n    mapping (uint => address payable) public lotteryHistory;\n\n    constructor(LotToken _tokenContract) {\n        tokenContract = _tokenContract;\n        admin = payable(msg.sender);\n        lotteryId = 1;\n    }\n\n    function getWinnerByLottery(uint lottery) public view returns (address payable) {\n        return lotteryHistory[lottery];\n    }\n\n    function getBalance() public view returns (uint) {\n        return address(this).balance;\n    }\n\n    function getPlayers() public view returns (address payable[] memory) {\n        return players;\n    }\n\n    function enter() public payable {\n        require(msg.value > .01 ether);\n\n        // address of player entering lottery\n        players.push(payable(msg.sender));\n    }\n\n    function getRandomNumber() public view returns (uint) {\n        return uint(keccak256(abi.encodePacked(admin, block.timestamp)));\n    }\n\n    function pickWinner() public payable {\n        uint index = getRandomNumber() % players.length;\n        players[index].transfer(address(this).balance);\n\n        lotteryHistory[lotteryId] = players[index];\n        lotteryId++;\n        \n\n        // reset the state of the contract\n        players = new address payable[](0);\n    }\n\n    modifier onlyowner() {\n      require(msg.sender == admin);\n      _;\n    }\n}",
  "sourcePath": "/Users/chenchengyu/Documents/Columbia/Course/BlockChain/ELENE6883_Final-Project/contracts/Lottery.sol",
  "compiler": {
    "name": "solc",
    "version": "0.8.13+commit.abaa5c0e.Emscripten.clang"
  },
  "schemaVersion": "3.4.7",
  "updatedAt": "2022-05-13T04:29:37.434Z",
  "devdoc": {
    "kind": "dev",
    "methods": {},
    "version": 1
  },
  "userdoc": {
    "kind": "user",
    "methods": {},
    "version": 1
  }
}