{
  "contractName": "LotToken",
  "abi": [
    {
      "inputs": [
        {
          "internalType": "uint256",
          "name": "_initialSupply",
          "type": "uint256"
        }
      ],
      "stateMutability": "nonpayable",
      "type": "constructor"
    },
    {
      "anonymous": false,
      "inputs": [
        {
          "indexed": true,
          "internalType": "address",
          "name": "_owner",
          "type": "address"
        },
        {
          "indexed": true,
          "internalType": "address",
          "name": "_spender",
          "type": "address"
        },
        {
          "indexed": false,
          "internalType": "uint256",
          "name": "_value",
          "type": "uint256"
        }
      ],
      "name": "Approval",
      "type": "event"
    },
    {
      "anonymous": false,
      "inputs": [
        {
          "indexed": true,
          "internalType": "address",
          "name": "_from",
          "type": "address"
        },
        {
          "indexed": true,
          "internalType": "address",
          "name": "_to",
          "type": "address"
        },
        {
          "indexed": false,
          "internalType": "uint256",
          "name": "_value",
          "type": "uint256"
        }
      ],
      "name": "Transfer",
      "type": "event"
    },
    {
      "inputs": [
        {
          "internalType": "address",
          "name": "",
          "type": "address"
        },
        {
          "internalType": "address",
          "name": "",
          "type": "address"
        }
      ],
      "name": "allowance",
      "outputs": [
        {
          "internalType": "uint256",
          "name": "",
          "type": "uint256"
        }
      ],
      "stateMutability": "view",
      "type": "function",
      "constant": true
    },
    {
      "inputs": [
        {
          "internalType": "address",
          "name": "",
          "type": "address"
        }
      ],
      "name": "balanceOf",
      "outputs": [
        {
          "internalType": "uint256",
          "name": "",
          "type": "uint256"
        }
      ],
      "stateMutability": "view",
      "type": "function",
      "constant": true
    },
    {
      "inputs": [],
      "name": "name",
      "outputs": [
        {
          "internalType": "string",
          "name": "",
          "type": "string"
        }
      ],
      "stateMutability": "view",
      "type": "function",
      "constant": true
    },
    {
      "inputs": [],
      "name": "standard",
      "outputs": [
        {
          "internalType": "string",
          "name": "",
          "type": "string"
        }
      ],
      "stateMutability": "view",
      "type": "function",
      "constant": true
    },
    {
      "inputs": [],
      "name": "symbol",
      "outputs": [
        {
          "internalType": "string",
          "name": "",
          "type": "string"
        }
      ],
      "stateMutability": "view",
      "type": "function",
      "constant": true
    },
    {
      "inputs": [],
      "name": "totalSupply",
      "outputs": [
        {
          "internalType": "uint256",
          "name": "",
          "type": "uint256"
        }
      ],
      "stateMutability": "view",
      "type": "function",
      "constant": true
    },
    {
      "inputs": [
        {
          "internalType": "address",
          "name": "_to",
          "type": "address"
        },
        {
          "internalType": "uint256",
          "name": "_value",
          "type": "uint256"
        }
      ],
      "name": "transfer",
      "outputs": [
        {
          "internalType": "bool",
          "name": "success",
          "type": "bool"
        }
      ],
      "stateMutability": "nonpayable",
      "type": "function"
    },
    {
      "inputs": [],
      "name": "getBalance",
      "outputs": [
        {
          "internalType": "uint256",
          "name": "",
          "type": "uint256"
        }
      ],
      "stateMutability": "view",
      "type": "function",
      "constant": true
    },
    {
      "inputs": [
        {
          "internalType": "address",
          "name": "_spender",
          "type": "address"
        },
        {
          "internalType": "uint256",
          "name": "_value",
          "type": "uint256"
        }
      ],
      "name": "approve",
      "outputs": [
        {
          "internalType": "bool",
          "name": "success",
          "type": "bool"
        }
      ],
      "stateMutability": "nonpayable",
      "type": "function"
    },
    {
      "inputs": [
        {
          "internalType": "address",
          "name": "_from",
          "type": "address"
        },
        {
          "internalType": "address",
          "name": "_to",
          "type": "address"
        },
        {
          "internalType": "uint256",
          "name": "_value",
          "type": "uint256"
        }
      ],
      "name": "transferFrom",
      "outputs": [
        {
          "internalType": "bool",
          "name": "success",
          "type": "bool"
        }
      ],
      "stateMutability": "nonpayable",
      "type": "function"
    }
  ],
  "bytecode": "0x60806040526040518060400160405280600981526020017f4c6f7420546f6b656e0000000000000000000000000000000000000000000000815250600390805190602001906200005192919062000173565b506040518060400160405280600381526020017f4c6f740000000000000000000000000000000000000000000000000000000000815250600490805190602001906200009f92919062000173565b506040518060400160405280600e81526020017f4c6f7420546f6b656e2076312e3000000000000000000000000000000000000081525060059080519060200190620000ed92919062000173565b50348015620000fb57600080fd5b5060405162000f3638038062000f36833981810160405281019062000121919062000263565b80600160003373ffffffffffffffffffffffffffffffffffffffff1673ffffffffffffffffffffffffffffffffffffffff168152602001908152602001600020819055508060008190555050620002f9565b8280546200018190620002c4565b90600052602060002090601f016020900481019282620001a55760008555620001f1565b82601f10620001c057805160ff1916838001178555620001f1565b82800160010185558215620001f1579182015b82811115620001f0578251825591602001919060010190620001d3565b5b50905062000200919062000204565b5090565b5b808211156200021f57600081600090555060010162000205565b5090565b600080fd5b6000819050919050565b6200023d8162000228565b81146200024957600080fd5b50565b6000815190506200025d8162000232565b92915050565b6000602082840312156200027c576200027b62000223565b5b60006200028c848285016200024c565b91505092915050565b7f4e487b7100000000000000000000000000000000000000000000000000000000600052602260045260246000fd5b60006002820490506001821680620002dd57607f821691505b602082108103620002f357620002f262000295565b5b50919050565b610c2d80620003096000396000f3fe608060405234801561001057600080fd5b506004361061009e5760003560e01c80635a3b7e42116100665780635a3b7e421461015d57806370a082311461017b57806395d89b41146101ab578063a9059cbb146101c9578063dd62ed3e146101f95761009e565b806306fdde03146100a3578063095ea7b3146100c157806312065fe0146100f157806318160ddd1461010f57806323b872dd1461012d575b600080fd5b6100ab610229565b6040516100b891906108c3565b60405180910390f35b6100db60048036038101906100d6919061097e565b6102b7565b6040516100e891906109d9565b60405180910390f35b6100f96103a9565b6040516101069190610a03565b60405180910390f35b6101176103b1565b6040516101249190610a03565b60405180910390f35b61014760048036038101906101429190610a1e565b6103b7565b60405161015491906109d9565b60405180910390f35b610165610568565b60405161017291906108c3565b60405180910390f35b61019560048036038101906101909190610a71565b6105f6565b6040516101a29190610a03565b60405180910390f35b6101b361060e565b6040516101c091906108c3565b60405180910390f35b6101e360048036038101906101de919061097e565b61069c565b6040516101f091906109d9565b60405180910390f35b610213600480360381019061020e9190610a9e565b610805565b6040516102209190610a03565b60405180910390f35b6003805461023690610b0d565b80601f016020809104026020016040519081016040528092919081815260200182805461026290610b0d565b80156102af5780601f10610284576101008083540402835291602001916102af565b820191906000526020600020905b81548152906001019060200180831161029257829003601f168201915b505050505081565b600081600260003373ffffffffffffffffffffffffffffffffffffffff1673ffffffffffffffffffffffffffffffffffffffff16815260200190815260200160002060008573ffffffffffffffffffffffffffffffffffffffff1673ffffffffffffffffffffffffffffffffffffffff168152602001908152602001600020819055508273ffffffffffffffffffffffffffffffffffffffff163373ffffffffffffffffffffffffffffffffffffffff167f8c5be1e5ebec7d5bd14f71427d1e84f3dd0314c0f7b2291e5b200ac8c7c3b925846040516103979190610a03565b60405180910390a36001905092915050565b600047905090565b60005481565b600081600160008673ffffffffffffffffffffffffffffffffffffffff1673ffffffffffffffffffffffffffffffffffffffff16815260200190815260200160002060008282546104089190610b6d565b9250508190555081600160008573ffffffffffffffffffffffffffffffffffffffff1673ffffffffffffffffffffffffffffffffffffffff168152602001908152602001600020600082825461045e9190610ba1565b9250508190555081600260008673ffffffffffffffffffffffffffffffffffffffff1673ffffffffffffffffffffffffffffffffffffffff16815260200190815260200160002060003373ffffffffffffffffffffffffffffffffffffffff1673ffffffffffffffffffffffffffffffffffffffff16815260200190815260200160002060008282546104f19190610b6d565b925050819055508273ffffffffffffffffffffffffffffffffffffffff168473ffffffffffffffffffffffffffffffffffffffff167fddf252ad1be2c89b69c2b068fc378daa952ba7f163c4a11628f55a4df523b3ef846040516105559190610a03565b60405180910390a3600190509392505050565b6005805461057590610b0d565b80601f01602080910402602001604051908101604052809291908181526020018280546105a190610b0d565b80156105ee5780601f106105c3576101008083540402835291602001916105ee565b820191906000526020600020905b8154815290600101906020018083116105d157829003601f168201915b505050505081565b60016020528060005260406000206000915090505481565b6004805461061b90610b0d565b80601f016020809104026020016040519081016040528092919081815260200182805461064790610b0d565b80156106945780601f1061066957610100808354040283529160200191610694565b820191906000526020600020905b81548152906001019060200180831161067757829003601f168201915b505050505081565b600081600160003373ffffffffffffffffffffffffffffffffffffffff1673ffffffffffffffffffffffffffffffffffffffff1681526020019081526020016000205410156106ea57600080fd5b81600160003373ffffffffffffffffffffffffffffffffffffffff1673ffffffffffffffffffffffffffffffffffffffff16815260200190815260200160002060008282546107399190610b6d565b9250508190555081600160008573ffffffffffffffffffffffffffffffffffffffff1673ffffffffffffffffffffffffffffffffffffffff168152602001908152602001600020600082825461078f9190610ba1565b925050819055508273ffffffffffffffffffffffffffffffffffffffff163373ffffffffffffffffffffffffffffffffffffffff167fddf252ad1be2c89b69c2b068fc378daa952ba7f163c4a11628f55a4df523b3ef846040516107f39190610a03565b60405180910390a36001905092915050565b6002602052816000526040600020602052806000526040600020600091509150505481565b600081519050919050565b600082825260208201905092915050565b60005b83811015610864578082015181840152602081019050610849565b83811115610873576000848401525b50505050565b6000601f19601f8301169050919050565b60006108958261082a565b61089f8185610835565b93506108af818560208601610846565b6108b881610879565b840191505092915050565b600060208201905081810360008301526108dd818461088a565b905092915050565b600080fd5b600073ffffffffffffffffffffffffffffffffffffffff82169050919050565b6000610915826108ea565b9050919050565b6109258161090a565b811461093057600080fd5b50565b6000813590506109428161091c565b92915050565b6000819050919050565b61095b81610948565b811461096657600080fd5b50565b60008135905061097881610952565b92915050565b60008060408385031215610995576109946108e5565b5b60006109a385828601610933565b92505060206109b485828601610969565b9150509250929050565b60008115159050919050565b6109d3816109be565b82525050565b60006020820190506109ee60008301846109ca565b92915050565b6109fd81610948565b82525050565b6000602082019050610a1860008301846109f4565b92915050565b600080600060608486031215610a3757610a366108e5565b5b6000610a4586828701610933565b9350506020610a5686828701610933565b9250506040610a6786828701610969565b9150509250925092565b600060208284031215610a8757610a866108e5565b5b6000610a9584828501610933565b91505092915050565b60008060408385031215610ab557610ab46108e5565b5b6000610ac385828601610933565b9250506020610ad485828601610933565b9150509250929050565b7f4e487b7100000000000000000000000000000000000000000000000000000000600052602260045260246000fd5b60006002820490506001821680610b2557607f821691505b602082108103610b3857610b37610ade565b5b50919050565b7f4e487b7100000000000000000000000000000000000000000000000000000000600052601160045260246000fd5b6000610b7882610948565b9150610b8383610948565b925082821015610b9657610b95610b3e565b5b828203905092915050565b6000610bac82610948565b9150610bb783610948565b9250827fffffffffffffffffffffffffffffffffffffffffffffffffffffffffffffffff03821115610bec57610beb610b3e565b5b82820190509291505056fea2646970667358221220feaf64ff8b4ffaa7b364e99d490b5876deeb55bde8762a05e85f542c3ef15ad464736f6c634300080d0033",
  "immutableReferences": {},
  "source": "// SPDX-License-Identifier: MIT\npragma solidity ^0.8.13;\n\ncontract LotToken {\n\t// Constructor\n\t// Set the total number of tokens\n\t// Read the total number of tokens\n\tuint256 public totalSupply;\n\tmapping(address => uint256) public balanceOf;\n\t// account A approve account B to spend {value}\n\tmapping(address => mapping(address => uint256)) public allowance;\n\t// Name\n\tstring public name = \"Lot Token\";\n\t// Symbol\n\tstring public symbol = \"Lot\";\n\t// standard\n\tstring public standard = \"Lot Token v1.0\";\n\n\tevent Transfer(\n\t\taddress indexed _from,\n\t\taddress indexed _to,\n\t\tuint256 _value\n\t);\n\n\tevent Approval(\n        address indexed _owner,\n        address indexed _spender,\n        uint256 _value\n\t);\n\n\tconstructor(uint256 _initialSupply) {\n\t\tbalanceOf[msg.sender] = _initialSupply;\n\t\ttotalSupply = _initialSupply;\n\t\t// alocate the initial supply\n\t}\n\n\t// Transfer \n\tfunction transfer(address _to, uint256 _value) public returns (bool success) {\n        // Exception if account doesn't have enough\n        require(balanceOf[msg.sender] >= _value);\n        // Transfer the balance\n        balanceOf[msg.sender] -= _value;\n        balanceOf[_to] += _value;\n\t    // Return a boolean\n\t    emit Transfer(msg.sender, _to, _value);\n\t    // Transfer Event\n\n\t    return true;\n\t}\n    function getBalance() public view returns (uint) {\n        return address(this).balance;\n    }\n\t// approve\n\tfunction approve(address _spender, uint256 _value) public returns (bool success) {\n\t\t// allowance\n\t\tallowance[msg.sender][_spender] = _value;\n\n\t\t//Approve event\n\t\temit Approval(msg.sender, _spender, _value);\n\t\treturn true;\n\t}\n\n\t// transferFrom\n\tfunction transferFrom(address _from, address _to, uint256 _value) public returns (bool success) {\n\t\t// Require _from has enough tokens\n\t\t//require(_value <= balanceOf[_from]);\n\t\t// Require allowance is big enough\n\t\t//require(_value <= allowance[_from][msg.sender]);\n\t\t// Change the balance\n\t\tbalanceOf[_from] -= _value;\n\t\tbalanceOf[_to] += _value;\n\t\t// Update the allowance\n\t\tallowance[_from][msg.sender] -= _value;\n\t\t// Transfer event\n\t\temit Transfer(_from, _to, _value);\n\t\treturn true;\n\t}\n\n}",
  "sourcePath": "/Users/sunyingjin/EE6883/ELENE6883_Final-Project/contracts/LotToken.sol",
  "compiler": {
    "name": "solc",
    "version": "0.8.13+commit.abaa5c0e.Emscripten.clang"
  },
  "schemaVersion": "3.4.7",
  "updatedAt": "2022-05-13T03:06:08.013Z",
  "networkType": "ethereum",
  "devdoc": {
    "kind": "dev",
    "methods": {},
    "version": 1
  },
  "userdoc": {
    "kind": "user",
    "methods": {},
    "version": 1
  }
}