{
  "contractName": "LotToken",
  "abi": [
    {
      "inputs": [
        {
          "internalType": "uint256",
          "name": "_initialSupply",
          "type": "uint256"
        }
      ],
      "stateMutability": "nonpayable",
      "type": "constructor"
    },
    {
      "anonymous": false,
      "inputs": [
        {
          "indexed": true,
          "internalType": "address",
          "name": "_owner",
          "type": "address"
        },
        {
          "indexed": true,
          "internalType": "address",
          "name": "_spender",
          "type": "address"
        },
        {
          "indexed": false,
          "internalType": "uint256",
          "name": "_value",
          "type": "uint256"
        }
      ],
      "name": "Approval",
      "type": "event"
    },
    {
      "anonymous": false,
      "inputs": [
        {
          "indexed": true,
          "internalType": "address",
          "name": "_from",
          "type": "address"
        },
        {
          "indexed": true,
          "internalType": "address",
          "name": "_to",
          "type": "address"
        },
        {
          "indexed": false,
          "internalType": "uint256",
          "name": "_value",
          "type": "uint256"
        }
      ],
      "name": "Transfer",
      "type": "event"
    },
    {
      "inputs": [
        {
          "internalType": "address",
          "name": "",
          "type": "address"
        },
        {
          "internalType": "address",
          "name": "",
          "type": "address"
        }
      ],
      "name": "allowance",
      "outputs": [
        {
          "internalType": "uint256",
          "name": "",
          "type": "uint256"
        }
      ],
      "stateMutability": "view",
      "type": "function",
      "constant": true
    },
    {
      "inputs": [
        {
          "internalType": "address",
          "name": "",
          "type": "address"
        }
      ],
      "name": "balanceOf",
      "outputs": [
        {
          "internalType": "uint256",
          "name": "",
          "type": "uint256"
        }
      ],
      "stateMutability": "view",
      "type": "function",
      "constant": true
    },
    {
      "inputs": [],
      "name": "name",
      "outputs": [
        {
          "internalType": "string",
          "name": "",
          "type": "string"
        }
      ],
      "stateMutability": "view",
      "type": "function",
      "constant": true
    },
    {
      "inputs": [],
      "name": "standard",
      "outputs": [
        {
          "internalType": "string",
          "name": "",
          "type": "string"
        }
      ],
      "stateMutability": "view",
      "type": "function",
      "constant": true
    },
    {
      "inputs": [],
      "name": "symbol",
      "outputs": [
        {
          "internalType": "string",
          "name": "",
          "type": "string"
        }
      ],
      "stateMutability": "view",
      "type": "function",
      "constant": true
    },
    {
      "inputs": [],
      "name": "totalSupply",
      "outputs": [
        {
          "internalType": "uint256",
          "name": "",
          "type": "uint256"
        }
      ],
      "stateMutability": "view",
      "type": "function",
      "constant": true
    },
    {
      "inputs": [
        {
          "internalType": "address",
          "name": "_to",
          "type": "address"
        },
        {
          "internalType": "uint256",
          "name": "_value",
          "type": "uint256"
        }
      ],
      "name": "transfer",
      "outputs": [
        {
          "internalType": "bool",
          "name": "success",
          "type": "bool"
        }
      ],
      "stateMutability": "nonpayable",
      "type": "function"
    },
    {
      "inputs": [],
      "name": "getBalance",
      "outputs": [
        {
          "internalType": "uint256",
          "name": "",
          "type": "uint256"
        }
      ],
      "stateMutability": "view",
      "type": "function",
      "constant": true
    },
    {
      "inputs": [
        {
          "internalType": "address",
          "name": "_spender",
          "type": "address"
        },
        {
          "internalType": "uint256",
          "name": "_value",
          "type": "uint256"
        }
      ],
      "name": "approve",
      "outputs": [
        {
          "internalType": "bool",
          "name": "success",
          "type": "bool"
        }
      ],
      "stateMutability": "nonpayable",
      "type": "function"
    },
    {
      "inputs": [
        {
          "internalType": "address",
          "name": "_from",
          "type": "address"
        },
        {
          "internalType": "address",
          "name": "_to",
          "type": "address"
        },
        {
          "internalType": "uint256",
          "name": "_value",
          "type": "uint256"
        }
      ],
      "name": "transferFrom",
      "outputs": [
        {
          "internalType": "bool",
          "name": "success",
          "type": "bool"
        }
      ],
      "stateMutability": "nonpayable",
      "type": "function"
    }
  ],
  "bytecode": "0x60806040526040518060400160405280600981526020017f4c6f7420546f6b656e0000000000000000000000000000000000000000000000815250600390805190602001906200005192919062000173565b506040518060400160405280600381526020017f4c6f740000000000000000000000000000000000000000000000000000000000815250600490805190602001906200009f92919062000173565b506040518060400160405280600e81526020017f4c6f7420546f6b656e2076312e3000000000000000000000000000000000000081525060059080519060200190620000ed92919062000173565b50348015620000fb57600080fd5b5060405162000dbb38038062000dbb833981810160405281019062000121919062000263565b80600160003373ffffffffffffffffffffffffffffffffffffffff1673ffffffffffffffffffffffffffffffffffffffff168152602001908152602001600020819055508060008190555050620002f9565b8280546200018190620002c4565b90600052602060002090601f016020900481019282620001a55760008555620001f1565b82601f10620001c057805160ff1916838001178555620001f1565b82800160010185558215620001f1579182015b82811115620001f0578251825591602001919060010190620001d3565b5b50905062000200919062000204565b5090565b5b808211156200021f57600081600090555060010162000205565b5090565b600080fd5b6000819050919050565b6200023d8162000228565b81146200024957600080fd5b50565b6000815190506200025d8162000232565b92915050565b6000602082840312156200027c576200027b62000223565b5b60006200028c848285016200024c565b91505092915050565b7f4e487b7100000000000000000000000000000000000000000000000000000000600052602260045260246000fd5b60006002820490506001821680620002dd57607f821691505b602082108103620002f357620002f262000295565b5b50919050565b610ab280620003096000396000f3fe608060405234801561001057600080fd5b506004361061009e5760003560e01c80635a3b7e42116100665780635a3b7e421461015d57806370a082311461017b57806395d89b41146101ab578063a9059cbb146101c9578063dd62ed3e146101f95761009e565b806306fdde03146100a3578063095ea7b3146100c157806312065fe0146100f157806318160ddd1461010f57806323b872dd1461012d575b600080fd5b6100ab610229565b6040516100b89190610748565b60405180910390f35b6100db60048036038101906100d69190610803565b6102b7565b6040516100e8919061085e565b60405180910390f35b6100f9610344565b6040516101069190610888565b60405180910390f35b61011761034c565b6040516101249190610888565b60405180910390f35b610147600480360381019061014291906108a3565b610352565b604051610154919061085e565b60405180910390f35b61016561049e565b6040516101729190610748565b60405180910390f35b610195600480360381019061019091906108f6565b61052c565b6040516101a29190610888565b60405180910390f35b6101b3610544565b6040516101c09190610748565b60405180910390f35b6101e360048036038101906101de9190610803565b6105d2565b6040516101f0919061085e565b60405180910390f35b610213600480360381019061020e9190610923565b61068a565b6040516102209190610888565b60405180910390f35b6003805461023690610992565b80601f016020809104026020016040519081016040528092919081815260200182805461026290610992565b80156102af5780601f10610284576101008083540402835291602001916102af565b820191906000526020600020905b81548152906001019060200180831161029257829003601f168201915b505050505081565b600081600260003373ffffffffffffffffffffffffffffffffffffffff1673ffffffffffffffffffffffffffffffffffffffff16815260200190815260200160002060008573ffffffffffffffffffffffffffffffffffffffff1673ffffffffffffffffffffffffffffffffffffffff168152602001908152602001600020819055506001905092915050565b600047905090565b60005481565b600081600160008673ffffffffffffffffffffffffffffffffffffffff1673ffffffffffffffffffffffffffffffffffffffff16815260200190815260200160002060008282546103a391906109f2565b9250508190555081600160008573ffffffffffffffffffffffffffffffffffffffff1673ffffffffffffffffffffffffffffffffffffffff16815260200190815260200160002060008282546103f99190610a26565b9250508190555081600260008673ffffffffffffffffffffffffffffffffffffffff1673ffffffffffffffffffffffffffffffffffffffff16815260200190815260200160002060003373ffffffffffffffffffffffffffffffffffffffff1673ffffffffffffffffffffffffffffffffffffffff168152602001908152602001600020600082825461048c91906109f2565b92505081905550600190509392505050565b600580546104ab90610992565b80601f01602080910402602001604051908101604052809291908181526020018280546104d790610992565b80156105245780601f106104f957610100808354040283529160200191610524565b820191906000526020600020905b81548152906001019060200180831161050757829003601f168201915b505050505081565b60016020528060005260406000206000915090505481565b6004805461055190610992565b80601f016020809104026020016040519081016040528092919081815260200182805461057d90610992565b80156105ca5780601f1061059f576101008083540402835291602001916105ca565b820191906000526020600020905b8154815290600101906020018083116105ad57829003601f168201915b505050505081565b600081600160003373ffffffffffffffffffffffffffffffffffffffff1673ffffffffffffffffffffffffffffffffffffffff168152602001908152602001600020600082825461062391906109f2565b9250508190555081600160008573ffffffffffffffffffffffffffffffffffffffff1673ffffffffffffffffffffffffffffffffffffffff16815260200190815260200160002060008282546106799190610a26565b925050819055506001905092915050565b6002602052816000526040600020602052806000526040600020600091509150505481565b600081519050919050565b600082825260208201905092915050565b60005b838110156106e95780820151818401526020810190506106ce565b838111156106f8576000848401525b50505050565b6000601f19601f8301169050919050565b600061071a826106af565b61072481856106ba565b93506107348185602086016106cb565b61073d816106fe565b840191505092915050565b60006020820190508181036000830152610762818461070f565b905092915050565b600080fd5b600073ffffffffffffffffffffffffffffffffffffffff82169050919050565b600061079a8261076f565b9050919050565b6107aa8161078f565b81146107b557600080fd5b50565b6000813590506107c7816107a1565b92915050565b6000819050919050565b6107e0816107cd565b81146107eb57600080fd5b50565b6000813590506107fd816107d7565b92915050565b6000806040838503121561081a5761081961076a565b5b6000610828858286016107b8565b9250506020610839858286016107ee565b9150509250929050565b60008115159050919050565b61085881610843565b82525050565b6000602082019050610873600083018461084f565b92915050565b610882816107cd565b82525050565b600060208201905061089d6000830184610879565b92915050565b6000806000606084860312156108bc576108bb61076a565b5b60006108ca868287016107b8565b93505060206108db868287016107b8565b92505060406108ec868287016107ee565b9150509250925092565b60006020828403121561090c5761090b61076a565b5b600061091a848285016107b8565b91505092915050565b6000806040838503121561093a5761093961076a565b5b6000610948858286016107b8565b9250506020610959858286016107b8565b9150509250929050565b7f4e487b7100000000000000000000000000000000000000000000000000000000600052602260045260246000fd5b600060028204905060018216806109aa57607f821691505b6020821081036109bd576109bc610963565b5b50919050565b7f4e487b7100000000000000000000000000000000000000000000000000000000600052601160045260246000fd5b60006109fd826107cd565b9150610a08836107cd565b925082821015610a1b57610a1a6109c3565b5b828203905092915050565b6000610a31826107cd565b9150610a3c836107cd565b9250827fffffffffffffffffffffffffffffffffffffffffffffffffffffffffffffffff03821115610a7157610a706109c3565b5b82820190509291505056fea2646970667358221220d90dad1c8a7635a0239b8f3de91d653ae958c04b6d1aafcccd9ed232f264c8c464736f6c634300080d0033",
  "immutableReferences": {},
  "source": "// SPDX-License-Identifier: MIT\npragma solidity ^0.8.13;\n\ncontract LotToken {\n\t// Constructor\n\t// Set the total number of tokens\n\t// Read the total number of tokens\n\tuint256 public totalSupply;\n\tmapping(address => uint256) public balanceOf;\n\t// account A approve account B to spend {value}\n\tmapping(address => mapping(address => uint256)) public allowance;\n\t// Name\n\tstring public name = \"Lot Token\";\n\t// Symbol\n\tstring public symbol = \"Lot\";\n\t// standard\n\tstring public standard = \"Lot Token v1.0\";\n\n\tevent Transfer(\n\t\taddress indexed _from,\n\t\taddress indexed _to,\n\t\tuint256 _value\n\t);\n\n\tevent Approval(\n        address indexed _owner,\n        address indexed _spender,\n        uint256 _value\n\t);\n\n\tconstructor(uint256 _initialSupply) {\n\t\tbalanceOf[msg.sender] = _initialSupply;\n\t\ttotalSupply = _initialSupply;\n\t\t// alocate the initial supply\n\t}\n\n\t// Transfer \n\tfunction transfer(address _to, uint256 _value) public returns (bool success) {\n        // Exception if account doesn't have enough\n        //require(balanceOf[msg.sender] >= _value);\n        // Transfer the balance\n        balanceOf[msg.sender] -= _value;\n        balanceOf[_to] += _value;\n\t    // Return a boolean\n\t    //emit Transfer(msg.sender, _to, _value);\n\t    // Transfer Event\n\n\t    return true;\n\t}\n    function getBalance() public view returns (uint) {\n        return address(this).balance;\n    }\n\t// approve\n\tfunction approve(address _spender, uint256 _value) public returns (bool success) {\n\t\t// allowance\n\t\tallowance[msg.sender][_spender] = _value;\n\n\t\t//Approve event\n\t\t//emit Approval(msg.sender, _spender, _value);\n\t\treturn true;\n\t}\n\n\t// transferFrom\n\tfunction transferFrom(address _from, address _to, uint256 _value) public returns (bool success) {\n\t\t// Require _from has enough tokens\n\t\t//require(_value <= balanceOf[_from]);\n\t\t// Require allowance is big enough\n\t\t//require(_value <= allowance[_from][msg.sender]);\n\t\t// Change the balance\n\t\tbalanceOf[_from] -= _value;\n\t\tbalanceOf[_to] += _value;\n\t\t// Update the allowance\n\t\tallowance[_from][msg.sender] -= _value;\n\t\t// Transfer event\n\t\t//emit Transfer(_from, _to, _value);\n\t\treturn true;\n\t}\n\n}",
  "sourcePath": "/Users/sunyingjin/EE6883/ELENE6883_Final-Project/contracts/LotToken.sol",
  "compiler": {
    "name": "solc",
    "version": "0.8.13+commit.abaa5c0e.Emscripten.clang"
  },
  "schemaVersion": "3.4.7",
  "updatedAt": "2022-05-13T18:26:13.103Z",
  "networkType": "ethereum",
  "devdoc": {
    "kind": "dev",
    "methods": {},
    "version": 1
  },
  "userdoc": {
    "kind": "user",
    "methods": {},
    "version": 1
  }
}