{
  "contractName": "LOTtoken",
  "abi": [
    {
      "inputs": [],
      "stateMutability": "nonpayable",
      "type": "constructor"
    },
    {
      "anonymous": false,
      "inputs": [
        {
          "indexed": true,
          "internalType": "address",
          "name": "_owner",
          "type": "address"
        },
        {
          "indexed": true,
          "internalType": "address",
          "name": "_spender",
          "type": "address"
        },
        {
          "indexed": false,
          "internalType": "uint256",
          "name": "_value",
          "type": "uint256"
        }
      ],
      "name": "Approval",
      "type": "event"
    },
    {
      "anonymous": false,
      "inputs": [
        {
          "indexed": true,
          "internalType": "address",
          "name": "_from",
          "type": "address"
        },
        {
          "indexed": true,
          "internalType": "address",
          "name": "_to",
          "type": "address"
        },
        {
          "indexed": false,
          "internalType": "uint256",
          "name": "_value",
          "type": "uint256"
        }
      ],
      "name": "Transfer",
      "type": "event"
    },
    {
      "inputs": [
        {
          "internalType": "address",
          "name": "",
          "type": "address"
        },
        {
          "internalType": "address",
          "name": "",
          "type": "address"
        }
      ],
      "name": "allowance",
      "outputs": [
        {
          "internalType": "uint256",
          "name": "",
          "type": "uint256"
        }
      ],
      "stateMutability": "view",
      "type": "function",
      "constant": true
    },
    {
      "inputs": [
        {
          "internalType": "address",
          "name": "",
          "type": "address"
        }
      ],
      "name": "balanceOf",
      "outputs": [
        {
          "internalType": "uint256",
          "name": "",
          "type": "uint256"
        }
      ],
      "stateMutability": "view",
      "type": "function",
      "constant": true
    },
    {
      "inputs": [],
      "name": "name",
      "outputs": [
        {
          "internalType": "string",
          "name": "",
          "type": "string"
        }
      ],
      "stateMutability": "view",
      "type": "function",
      "constant": true
    },
    {
      "inputs": [],
      "name": "symbol",
      "outputs": [
        {
          "internalType": "string",
          "name": "",
          "type": "string"
        }
      ],
      "stateMutability": "view",
      "type": "function",
      "constant": true
    },
    {
      "inputs": [],
      "name": "totalSupply",
      "outputs": [
        {
          "internalType": "uint256",
          "name": "",
          "type": "uint256"
        }
      ],
      "stateMutability": "view",
      "type": "function",
      "constant": true
    },
    {
      "inputs": [
        {
          "internalType": "address",
          "name": "_to",
          "type": "address"
        },
        {
          "internalType": "uint256",
          "name": "_value",
          "type": "uint256"
        }
      ],
      "name": "transfer",
      "outputs": [
        {
          "internalType": "bool",
          "name": "success",
          "type": "bool"
        }
      ],
      "stateMutability": "nonpayable",
      "type": "function"
    },
    {
      "inputs": [
        {
          "internalType": "address",
          "name": "_spender",
          "type": "address"
        },
        {
          "internalType": "uint256",
          "name": "_value",
          "type": "uint256"
        }
      ],
      "name": "approve",
      "outputs": [
        {
          "internalType": "bool",
          "name": "success",
          "type": "bool"
        }
      ],
      "stateMutability": "nonpayable",
      "type": "function"
    },
    {
      "inputs": [
        {
          "internalType": "address",
          "name": "_from",
          "type": "address"
        },
        {
          "internalType": "address",
          "name": "_to",
          "type": "address"
        },
        {
          "internalType": "uint256",
          "name": "_value",
          "type": "uint256"
        }
      ],
      "name": "transferFrom",
      "outputs": [
        {
          "internalType": "bool",
          "name": "success",
          "type": "bool"
        }
      ],
      "stateMutability": "nonpayable",
      "type": "function"
    }
  ],
  "bytecode": "0x60806040526040518060400160405280600d81526020017f4c6f747465727920546f6b656e00000000000000000000000000000000000000815250600090805190602001906200005192919062000104565b506040518060400160405280600381526020017f4c4f540000000000000000000000000000000000000000000000000000000000815250600190805190602001906200009f92919062000104565b50348015620000ad57600080fd5b50620f4240600281905550600254600360003373ffffffffffffffffffffffffffffffffffffffff1673ffffffffffffffffffffffffffffffffffffffff1681526020019081526020016000208190555062000218565b8280546200011290620001e3565b90600052602060002090601f01602090048101928262000136576000855562000182565b82601f106200015157805160ff191683800117855562000182565b8280016001018555821562000182579182015b828111156200018157825182559160200191906001019062000164565b5b50905062000191919062000195565b5090565b5b80821115620001b057600081600090555060010162000196565b5090565b7f4e487b7100000000000000000000000000000000000000000000000000000000600052602260045260246000fd5b60006002820490506001821680620001fc57607f821691505b602082108103620002125762000211620001b4565b5b50919050565b610cff80620002286000396000f3fe608060405234801561001057600080fd5b50600436106100885760003560e01c806370a082311161005b57806370a082311461012957806395d89b4114610159578063a9059cbb14610177578063dd62ed3e146101a757610088565b806306fdde031461008d578063095ea7b3146100ab57806318160ddd146100db57806323b872dd146100f9575b600080fd5b6100956101d7565b6040516100a29190610995565b60405180910390f35b6100c560048036038101906100c09190610a50565b610265565b6040516100d29190610aab565b60405180910390f35b6100e3610357565b6040516100f09190610ad5565b60405180910390f35b610113600480360381019061010e9190610af0565b61035d565b6040516101209190610aab565b60405180910390f35b610143600480360381019061013e9190610b43565b6106c8565b6040516101509190610ad5565b60405180910390f35b6101616106e0565b60405161016e9190610995565b60405180910390f35b610191600480360381019061018c9190610a50565b61076e565b60405161019e9190610aab565b60405180910390f35b6101c160048036038101906101bc9190610b70565b6108d7565b6040516101ce9190610ad5565b60405180910390f35b600080546101e490610bdf565b80601f016020809104026020016040519081016040528092919081815260200182805461021090610bdf565b801561025d5780601f106102325761010080835404028352916020019161025d565b820191906000526020600020905b81548152906001019060200180831161024057829003601f168201915b505050505081565b600081600460003373ffffffffffffffffffffffffffffffffffffffff1673ffffffffffffffffffffffffffffffffffffffff16815260200190815260200160002060008573ffffffffffffffffffffffffffffffffffffffff1673ffffffffffffffffffffffffffffffffffffffff168152602001908152602001600020819055508273ffffffffffffffffffffffffffffffffffffffff163373ffffffffffffffffffffffffffffffffffffffff167f8c5be1e5ebec7d5bd14f71427d1e84f3dd0314c0f7b2291e5b200ac8c7c3b925846040516103459190610ad5565b60405180910390a36001905092915050565b60025481565b600081600360008673ffffffffffffffffffffffffffffffffffffffff1673ffffffffffffffffffffffffffffffffffffffff1681526020019081526020016000205410156103ab57600080fd5b81600460008673ffffffffffffffffffffffffffffffffffffffff1673ffffffffffffffffffffffffffffffffffffffff16815260200190815260200160002060003373ffffffffffffffffffffffffffffffffffffffff1673ffffffffffffffffffffffffffffffffffffffff16815260200190815260200160002054101561043457600080fd5b81600360008673ffffffffffffffffffffffffffffffffffffffff1673ffffffffffffffffffffffffffffffffffffffff1681526020019081526020016000205461047f9190610c3f565b600360008673ffffffffffffffffffffffffffffffffffffffff1673ffffffffffffffffffffffffffffffffffffffff1681526020019081526020016000208190555081600360008573ffffffffffffffffffffffffffffffffffffffff1673ffffffffffffffffffffffffffffffffffffffff1681526020019081526020016000205461050d9190610c73565b600360008573ffffffffffffffffffffffffffffffffffffffff1673ffffffffffffffffffffffffffffffffffffffff1681526020019081526020016000208190555081600460008673ffffffffffffffffffffffffffffffffffffffff1673ffffffffffffffffffffffffffffffffffffffff16815260200190815260200160002060003373ffffffffffffffffffffffffffffffffffffffff1673ffffffffffffffffffffffffffffffffffffffff168152602001908152602001600020546105d89190610c3f565b600460008673ffffffffffffffffffffffffffffffffffffffff1673ffffffffffffffffffffffffffffffffffffffff16815260200190815260200160002060003373ffffffffffffffffffffffffffffffffffffffff1673ffffffffffffffffffffffffffffffffffffffff168152602001908152602001600020819055508273ffffffffffffffffffffffffffffffffffffffff168473ffffffffffffffffffffffffffffffffffffffff167fddf252ad1be2c89b69c2b068fc378daa952ba7f163c4a11628f55a4df523b3ef846040516106b59190610ad5565b60405180910390a3600190509392505050565b60036020528060005260406000206000915090505481565b600180546106ed90610bdf565b80601f016020809104026020016040519081016040528092919081815260200182805461071990610bdf565b80156107665780601f1061073b57610100808354040283529160200191610766565b820191906000526020600020905b81548152906001019060200180831161074957829003601f168201915b505050505081565b600081600360003373ffffffffffffffffffffffffffffffffffffffff1673ffffffffffffffffffffffffffffffffffffffff1681526020019081526020016000205410156107bc57600080fd5b81600360008573ffffffffffffffffffffffffffffffffffffffff1673ffffffffffffffffffffffffffffffffffffffff168152602001908152602001600020600082825461080b9190610c73565b9250508190555081600360003373ffffffffffffffffffffffffffffffffffffffff1673ffffffffffffffffffffffffffffffffffffffff16815260200190815260200160002060008282546108619190610c3f565b925050819055508273ffffffffffffffffffffffffffffffffffffffff163373ffffffffffffffffffffffffffffffffffffffff167fddf252ad1be2c89b69c2b068fc378daa952ba7f163c4a11628f55a4df523b3ef846040516108c59190610ad5565b60405180910390a36001905092915050565b6004602052816000526040600020602052806000526040600020600091509150505481565b600081519050919050565b600082825260208201905092915050565b60005b8381101561093657808201518184015260208101905061091b565b83811115610945576000848401525b50505050565b6000601f19601f8301169050919050565b6000610967826108fc565b6109718185610907565b9350610981818560208601610918565b61098a8161094b565b840191505092915050565b600060208201905081810360008301526109af818461095c565b905092915050565b600080fd5b600073ffffffffffffffffffffffffffffffffffffffff82169050919050565b60006109e7826109bc565b9050919050565b6109f7816109dc565b8114610a0257600080fd5b50565b600081359050610a14816109ee565b92915050565b6000819050919050565b610a2d81610a1a565b8114610a3857600080fd5b50565b600081359050610a4a81610a24565b92915050565b60008060408385031215610a6757610a666109b7565b5b6000610a7585828601610a05565b9250506020610a8685828601610a3b565b9150509250929050565b60008115159050919050565b610aa581610a90565b82525050565b6000602082019050610ac06000830184610a9c565b92915050565b610acf81610a1a565b82525050565b6000602082019050610aea6000830184610ac6565b92915050565b600080600060608486031215610b0957610b086109b7565b5b6000610b1786828701610a05565b9350506020610b2886828701610a05565b9250506040610b3986828701610a3b565b9150509250925092565b600060208284031215610b5957610b586109b7565b5b6000610b6784828501610a05565b91505092915050565b60008060408385031215610b8757610b866109b7565b5b6000610b9585828601610a05565b9250506020610ba685828601610a05565b9150509250929050565b7f4e487b7100000000000000000000000000000000000000000000000000000000600052602260045260246000fd5b60006002820490506001821680610bf757607f821691505b602082108103610c0a57610c09610bb0565b5b50919050565b7f4e487b7100000000000000000000000000000000000000000000000000000000600052601160045260246000fd5b6000610c4a82610a1a565b9150610c5583610a1a565b925082821015610c6857610c67610c10565b5b828203905092915050565b6000610c7e82610a1a565b9150610c8983610a1a565b9250827fffffffffffffffffffffffffffffffffffffffffffffffffffffffffffffffff03821115610cbe57610cbd610c10565b5b82820190509291505056fea2646970667358221220e6f14ab9f43cdd7e5fc545059398829e41ae281a18a96a6902d24c3b8c86e78364736f6c634300080d0033",
  "immutableReferences": {},
  "source": "// SPDX-License-Identifier: MIT\npragma solidity ^0.8.13;\n\ncontract LOTtoken{\n\n  string public name = \"Lottery Token\";\n  string public symbol = \"LOT\";\n  uint256 public totalSupply;\n\n  // Returns the account balance of another account with address\n  mapping(address => uint256) public balanceOf;\n  // Returns the amount which _spender is still allowed to withdraw from _owner\n  mapping(address => mapping(address => uint256)) public allowance;\n  \n  // MUST trigger when tokens are transferred, including zero value transfers.\n  event Transfer(\n    address indexed _from,\n    address indexed _to,\n    uint256 _value\n  );\n\n  // MUST trigger on any successful call to approve(address _spender, uint256 _value)\n  event Approval(\n    address indexed _owner,\n    address indexed _spender,\n    uint256 _value\n  );\n\n  constructor() public {\n    // initialize the total supply to 1 million\n    totalSupply = 1000000;\n    // initial supply is allocated to the first address\n    // so the first address will contain all of the tokens initially\n    balanceOf[msg.sender] = totalSupply;\n\n  }\n  \n  // Transfers _value amount of tokens to address _to, and MUST fire the Transfer event\n  function transfer(address _to, uint256 _value) public returns (bool success){\n    require(balanceOf[msg.sender] >= _value);\n    balanceOf[_to] += _value;\n    balanceOf[msg.sender] -= _value;\n    // fire the Transfer event\n    emit Transfer(msg.sender, _to, _value);\n    return true;\n  }\n\n  // Allows _spender to withdraw from your account multiple times, up to the _value amount. \n  // If this function is called again it overwrites the current allowance with _value\n  function approve(address _spender, uint256 _value) public returns (bool success) {\n    allowance[msg.sender][_spender] = _value;\n    // fire the Approval event\n    emit Approval(msg.sender, _spender, _value);\n    return true;\n  }\n\n  // Transfers _value amount of tokens from address _from to address _to, and MUST fire the Transfer event\n  function transferFrom(address _from, address _to, uint256 _value) public returns (bool success) {\n    require(balanceOf[_from] >= _value);\n    require(allowance[_from][msg.sender] >= _value);\n\n    balanceOf[_from] = balanceOf[_from] - _value;\n    balanceOf[_to] = balanceOf[_to] + _value;\n\n    allowance[_from][msg.sender] = allowance[_from][msg.sender] - _value;\n\n    // fire the Transfer event\n    emit Transfer(_from, _to, _value);\n    return true;\n\n  }\n\n\n\n\n\n}\n",
  "sourcePath": "/Users/kevin/Desktop/LOT/contracts/LOTtoken.sol",
  "compiler": {
    "name": "solc",
    "version": "0.8.13+commit.abaa5c0e.Emscripten.clang"
  },
  "schemaVersion": "3.4.7",
  "updatedAt": "2022-04-29T00:52:24.644Z",
  "networkType": "ethereum",
  "devdoc": {
    "kind": "dev",
    "methods": {},
    "version": 1
  },
  "userdoc": {
    "kind": "user",
    "methods": {},
    "version": 1
  }
}