{
  "contractName": "LotTokenSale",
  "abi": [
    {
      "inputs": [
        {
          "internalType": "contract LotToken",
          "name": "_tokenContract",
          "type": "address"
        },
        {
          "internalType": "uint256",
          "name": "_tokenPrice",
          "type": "uint256"
        }
      ],
      "stateMutability": "nonpayable",
      "type": "constructor"
    },
    {
      "anonymous": false,
      "inputs": [
        {
          "indexed": false,
          "internalType": "address",
          "name": "_buyer",
          "type": "address"
        },
        {
          "indexed": false,
          "internalType": "uint256",
          "name": "_amount",
          "type": "uint256"
        }
      ],
      "name": "Sell",
      "type": "event"
    },
    {
      "inputs": [],
      "name": "tokenContract",
      "outputs": [
        {
          "internalType": "contract LotToken",
          "name": "",
          "type": "address"
        }
      ],
      "stateMutability": "view",
      "type": "function",
      "constant": true
    },
    {
      "inputs": [],
      "name": "tokenPrice",
      "outputs": [
        {
          "internalType": "uint256",
          "name": "",
          "type": "uint256"
        }
      ],
      "stateMutability": "view",
      "type": "function",
      "constant": true
    },
    {
      "inputs": [],
      "name": "tokensSold",
      "outputs": [
        {
          "internalType": "uint256",
          "name": "",
          "type": "uint256"
        }
      ],
      "stateMutability": "view",
      "type": "function",
      "constant": true
    },
    {
      "inputs": [],
      "name": "getTokenSold",
      "outputs": [
        {
          "internalType": "uint256",
          "name": "tokenSold",
          "type": "uint256"
        }
      ],
      "stateMutability": "nonpayable",
      "type": "function"
    },
    {
      "inputs": [
        {
          "internalType": "uint256",
          "name": "_numberOfTokens",
          "type": "uint256"
        }
      ],
      "name": "buyTokens",
      "outputs": [],
      "stateMutability": "payable",
      "type": "function",
      "payable": true
    },
    {
      "inputs": [],
      "name": "endSale",
      "outputs": [],
      "stateMutability": "nonpayable",
      "type": "function"
    }
  ],
  "bytecode": "0x608060405234801561001057600080fd5b50604051610a52380380610a528339818101604052810190610032919061016c565b336000806101000a81548173ffffffffffffffffffffffffffffffffffffffff021916908373ffffffffffffffffffffffffffffffffffffffff16021790555081600160006101000a81548173ffffffffffffffffffffffffffffffffffffffff021916908373ffffffffffffffffffffffffffffffffffffffff1602179055508060028190555050506101ac565b600080fd5b600073ffffffffffffffffffffffffffffffffffffffff82169050919050565b60006100f1826100c6565b9050919050565b6000610103826100e6565b9050919050565b610113816100f8565b811461011e57600080fd5b50565b6000815190506101308161010a565b92915050565b6000819050919050565b61014981610136565b811461015457600080fd5b50565b60008151905061016681610140565b92915050565b60008060408385031215610183576101826100c1565b5b600061019185828601610121565b92505060206101a285828601610157565b9150509250929050565b610897806101bb6000396000f3fe6080604052600436106100555760003560e01c80633610724e1461005a578063380d831b14610076578063518ab2a81461008d57806355a373d6146100b85780637ff9b596146100e357806394d773631461010e575b600080fd5b610074600480360381019061006f919061058a565b610139565b005b34801561008257600080fd5b5061008b610155565b005b34801561009957600080fd5b506100a261037a565b6040516100af91906105c6565b60405180910390f35b3480156100c457600080fd5b506100cd610380565b6040516100da9190610660565b60405180910390f35b3480156100ef57600080fd5b506100f86103a6565b60405161010591906105c6565b60405180910390f35b34801561011a57600080fd5b506101236103ac565b60405161013091906105c6565b60405180910390f35b806003600082825461014b91906106aa565b9250508190555050565b60008054906101000a900473ffffffffffffffffffffffffffffffffffffffff1673ffffffffffffffffffffffffffffffffffffffff163373ffffffffffffffffffffffffffffffffffffffff16146101ad57600080fd5b600160009054906101000a900473ffffffffffffffffffffffffffffffffffffffff1673ffffffffffffffffffffffffffffffffffffffff1663a9059cbb60008054906101000a900473ffffffffffffffffffffffffffffffffffffffff16600160009054906101000a900473ffffffffffffffffffffffffffffffffffffffff1673ffffffffffffffffffffffffffffffffffffffff166370a08231306040518263ffffffff1660e01b81526004016102679190610721565b602060405180830381865afa158015610284573d6000803e3d6000fd5b505050506040513d601f19601f820116820180604052508101906102a89190610751565b6040518363ffffffff1660e01b81526004016102c592919061079f565b6020604051808303816000875af11580156102e4573d6000803e3d6000fd5b505050506040513d601f19601f820116820180604052508101906103089190610800565b61031157600080fd5b60008054906101000a900473ffffffffffffffffffffffffffffffffffffffff1673ffffffffffffffffffffffffffffffffffffffff166108fc479081150290604051600060405180830381858888f19350505050158015610377573d6000803e3d6000fd5b50565b60035481565b600160009054906101000a900473ffffffffffffffffffffffffffffffffffffffff1681565b60025481565b60008060009054906101000a900473ffffffffffffffffffffffffffffffffffffffff1673ffffffffffffffffffffffffffffffffffffffff163373ffffffffffffffffffffffffffffffffffffffff161461040757600080fd5b6000600160009054906101000a900473ffffffffffffffffffffffffffffffffffffffff1673ffffffffffffffffffffffffffffffffffffffff166318160ddd6040518163ffffffff1660e01b8152600401602060405180830381865afa158015610476573d6000803e3d6000fd5b505050506040513d601f19601f8201168201806040525081019061049a9190610751565b90506000600160009054906101000a900473ffffffffffffffffffffffffffffffffffffffff1673ffffffffffffffffffffffffffffffffffffffff166370a08231306040518263ffffffff1660e01b81526004016104f99190610721565b602060405180830381865afa158015610516573d6000803e3d6000fd5b505050506040513d601f19601f8201168201806040525081019061053a9190610751565b90508082610548919061082d565b9250505090565b600080fd5b6000819050919050565b61056781610554565b811461057257600080fd5b50565b6000813590506105848161055e565b92915050565b6000602082840312156105a05761059f61054f565b5b60006105ae84828501610575565b91505092915050565b6105c081610554565b82525050565b60006020820190506105db60008301846105b7565b92915050565b600073ffffffffffffffffffffffffffffffffffffffff82169050919050565b6000819050919050565b600061062661062161061c846105e1565b610601565b6105e1565b9050919050565b60006106388261060b565b9050919050565b600061064a8261062d565b9050919050565b61065a8161063f565b82525050565b60006020820190506106756000830184610651565b92915050565b7f4e487b7100000000000000000000000000000000000000000000000000000000600052601160045260246000fd5b60006106b582610554565b91506106c083610554565b9250827fffffffffffffffffffffffffffffffffffffffffffffffffffffffffffffffff038211156106f5576106f461067b565b5b828201905092915050565b600061070b826105e1565b9050919050565b61071b81610700565b82525050565b60006020820190506107366000830184610712565b92915050565b60008151905061074b8161055e565b92915050565b6000602082840312156107675761076661054f565b5b60006107758482850161073c565b91505092915050565b60006107898261062d565b9050919050565b6107998161077e565b82525050565b60006040820190506107b46000830185610790565b6107c160208301846105b7565b9392505050565b60008115159050919050565b6107dd816107c8565b81146107e857600080fd5b50565b6000815190506107fa816107d4565b92915050565b6000602082840312156108165761081561054f565b5b6000610824848285016107eb565b91505092915050565b600061083882610554565b915061084383610554565b9250828210156108565761085561067b565b5b82820390509291505056fea26469706673582212205cae83a52f730e5815091931a172fa56a7e5f02533e2282ff5a77c129195699d64736f6c634300080d0033",
  "immutableReferences": {},
  "source": "// SPDX-License-Identifier: MIT\npragma solidity ^0.8.13;\nimport \"./LotToken.sol\";\n\ncontract LotTokenSale {\n\t// no public: we don't want to expose address of admin\n\taddress payable admin;\n\tLotToken public tokenContract; //addr of lotTOken!!!!\n\tuint256 public tokenPrice;\n\tuint256 public tokensSold;\n\n\tevent Sell(address _buyer, uint256 _amount);\n\n\tconstructor(LotToken _tokenContract, uint256 _tokenPrice) {\n\t\t// Assign an admin\n\t\tadmin = payable(msg.sender);\n\t\t// Token Contract\n\t\ttokenContract = _tokenContract;\n\t\t// Token Price\n\t\ttokenPrice = _tokenPrice;\n\t}\n\n    // multiply\n    function multiply(uint x, uint y) internal pure returns (uint z) {\n    \trequire(y == 0 || (z = x * y) / y == x);\n    }\n\tfunction getTokenSold() public returns (uint256 tokenSold){\n\t\t// Require admin\n\t\trequire(msg.sender == admin);\n\t\tuint256 supply = tokenContract.totalSupply();\n\t\tuint256 adminBalance = tokenContract.balanceOf(address(this));\n        return supply - adminBalance;\n\t}\n\t// Buy tokens\n\tfunction buyTokens(uint256 _numberOfTokens) public payable {\n\t\t// Require that value is equal to tokens\n\t\t//require(msg.value == multiply(_numberOfTokens, tokenPrice));\n\t\t// Require that the contract has enough tokens\n\t\t//require(tokenContract.balanceOf(address(this)) >= _numberOfTokens);\n\t\t// Require that a transfer is successful\n\t\t//require(tokenContract.transfer(msg.sender, _numberOfTokens));\n\t\t// Keep track of tokensSold\n\t\ttokensSold += _numberOfTokens;\n\t\t// Trigger sell event\n\t\t//emit Sell(msg.sender, _numberOfTokens);\n\t}\n\n\tfunction endSale() public {\n\t\t// Require admin\n\t\trequire(msg.sender == admin);\n\t\t// Transfer reamining dapp tokens to admin\n\t\trequire(tokenContract.transfer(admin, tokenContract.balanceOf(address(this))));\n\t\t// Destroy contract\n\t\tadmin.transfer(address(this).balance);\n\t}\n}",
  "sourcePath": "/Users/sunyingjin/EE6883/ELENE6883_Final-Project/contracts/LotTokenSale.sol",
  "compiler": {
    "name": "solc",
    "version": "0.8.13+commit.abaa5c0e.Emscripten.clang"
  },
  "schemaVersion": "3.4.7",
  "updatedAt": "2022-05-13T04:16:45.467Z",
  "networkType": "ethereum",
  "devdoc": {
    "kind": "dev",
    "methods": {},
    "version": 1
  },
  "userdoc": {
    "kind": "user",
    "methods": {},
    "version": 1
  }
}